{
  "address": "0x53f14D0d76Be097FB5BAaCab862F8C1099C056e0",
  "abi": [
    {
      "inputs": [
        {
          "internalType": "contract IWorldID",
          "name": "_worldId",
          "type": "address"
        },
        {
          "internalType": "string",
          "name": "_appId",
          "type": "string"
        },
        {
          "internalType": "string",
          "name": "_action",
          "type": "string"
        }
      ],
      "stateMutability": "nonpayable",
      "type": "constructor"
    },
    {
      "inputs": [],
      "name": "DailyLimitExceededError",
      "type": "error"
    },
    {
      "inputs": [],
      "name": "InvalidNullifier",
      "type": "error"
    },
    {
      "anonymous": false,
      "inputs": [
        {
          "indexed": true,
          "internalType": "address",
          "name": "token",
          "type": "address"
        },
        {
          "indexed": true,
          "internalType": "address",
          "name": "creator",
          "type": "address"
        },
        {
          "indexed": false,
          "internalType": "uint256",
          "name": "amount",
          "type": "uint256"
        }
      ],
      "name": "CreatorFeesWithdrawn",
      "type": "event"
    },
    {
      "anonymous": false,
      "inputs": [
        {
          "indexed": true,
          "internalType": "address",
          "name": "user",
          "type": "address"
        },
        {
          "indexed": false,
          "internalType": "uint256",
          "name": "attemptedAmount",
          "type": "uint256"
        },
        {
          "indexed": false,
          "internalType": "uint256",
          "name": "dailyLimit",
          "type": "uint256"
        }
      ],
      "name": "DailyLimitExceeded",
      "type": "event"
    },
    {
      "anonymous": false,
      "inputs": [
        {
          "indexed": true,
          "internalType": "address",
          "name": "previousOwner",
          "type": "address"
        },
        {
          "indexed": true,
          "internalType": "address",
          "name": "newOwner",
          "type": "address"
        }
      ],
      "name": "OwnershipTransferred",
      "type": "event"
    },
    {
      "anonymous": false,
      "inputs": [
        {
          "indexed": true,
          "internalType": "address",
          "name": "token",
          "type": "address"
        },
        {
          "indexed": true,
          "internalType": "address",
          "name": "creator",
          "type": "address"
        },
        {
          "indexed": false,
          "internalType": "string",
          "name": "name",
          "type": "string"
        },
        {
          "indexed": false,
          "internalType": "string",
          "name": "symbol",
          "type": "string"
        },
        {
          "indexed": false,
          "internalType": "string",
          "name": "metadataURI",
          "type": "string"
        }
      ],
      "name": "TokenCreated",
      "type": "event"
    },
    {
      "anonymous": false,
      "inputs": [
        {
          "indexed": true,
          "internalType": "address",
          "name": "token",
          "type": "address"
        },
        {
          "indexed": true,
          "internalType": "address",
          "name": "buyer",
          "type": "address"
        },
        {
          "indexed": false,
          "internalType": "uint256",
          "name": "ethAmount",
          "type": "uint256"
        },
        {
          "indexed": false,
          "internalType": "uint256",
          "name": "tokenAmount",
          "type": "uint256"
        },
        {
          "indexed": false,
          "internalType": "uint256",
          "name": "newVirtualEthReserves",
          "type": "uint256"
        },
        {
          "indexed": false,
          "internalType": "uint256",
          "name": "newVirtualTokenReserves",
          "type": "uint256"
        }
      ],
      "name": "TokensBought",
      "type": "event"
    },
    {
      "anonymous": false,
      "inputs": [
        {
          "indexed": true,
          "internalType": "address",
          "name": "token",
          "type": "address"
        },
        {
          "indexed": true,
          "internalType": "address",
          "name": "seller",
          "type": "address"
        },
        {
          "indexed": false,
          "internalType": "uint256",
          "name": "tokenAmount",
          "type": "uint256"
        },
        {
          "indexed": false,
          "internalType": "uint256",
          "name": "ethAmount",
          "type": "uint256"
        },
        {
          "indexed": false,
          "internalType": "uint256",
          "name": "newVirtualEthReserves",
          "type": "uint256"
        },
        {
          "indexed": false,
          "internalType": "uint256",
          "name": "newVirtualTokenReserves",
          "type": "uint256"
        }
      ],
      "name": "TokensSold",
      "type": "event"
    },
    {
      "anonymous": false,
      "inputs": [
        {
          "indexed": true,
          "internalType": "address",
          "name": "user",
          "type": "address"
        },
        {
          "indexed": false,
          "internalType": "uint256",
          "name": "nullifierHash",
          "type": "uint256"
        }
      ],
      "name": "WorldIDVerified",
      "type": "event"
    },
    {
      "inputs": [],
      "name": "CREATOR_FEE_RATE",
      "outputs": [
        {
          "internalType": "uint256",
          "name": "",
          "type": "uint256"
        }
      ],
      "stateMutability": "view",
      "type": "function"
    },
    {
      "inputs": [],
      "name": "DAILY_MINT_LIMIT",
      "outputs": [
        {
          "internalType": "uint256",
          "name": "",
          "type": "uint256"
        }
      ],
      "stateMutability": "view",
      "type": "function"
    },
    {
      "inputs": [],
      "name": "FEE_RATE",
      "outputs": [
        {
          "internalType": "uint256",
          "name": "",
          "type": "uint256"
        }
      ],
      "stateMutability": "view",
      "type": "function"
    },
    {
      "inputs": [],
      "name": "PLATFORM_FEE_RATE",
      "outputs": [
        {
          "internalType": "uint256",
          "name": "",
          "type": "uint256"
        }
      ],
      "stateMutability": "view",
      "type": "function"
    },
    {
      "inputs": [],
      "name": "SECONDS_IN_DAY",
      "outputs": [
        {
          "internalType": "uint256",
          "name": "",
          "type": "uint256"
        }
      ],
      "stateMutability": "view",
      "type": "function"
    },
    {
      "inputs": [],
      "name": "VIRTUAL_ETH_RESERVES",
      "outputs": [
        {
          "internalType": "uint256",
          "name": "",
          "type": "uint256"
        }
      ],
      "stateMutability": "view",
      "type": "function"
    },
    {
      "inputs": [],
      "name": "VIRTUAL_TOKEN_RESERVES",
      "outputs": [
        {
          "internalType": "uint256",
          "name": "",
          "type": "uint256"
        }
      ],
      "stateMutability": "view",
      "type": "function"
    },
    {
      "inputs": [
        {
          "internalType": "uint256",
          "name": "",
          "type": "uint256"
        }
      ],
      "name": "allTokens",
      "outputs": [
        {
          "internalType": "address",
          "name": "",
          "type": "address"
        }
      ],
      "stateMutability": "view",
      "type": "function"
    },
    {
      "inputs": [
        {
          "internalType": "address",
          "name": "tokenAddress",
          "type": "address"
        },
        {
          "internalType": "uint256",
          "name": "root",
          "type": "uint256"
        },
        {
          "internalType": "uint256",
          "name": "nullifierHash",
          "type": "uint256"
        },
        {
          "internalType": "uint256[8]",
          "name": "proof",
          "type": "uint256[8]"
        }
      ],
      "name": "buyTokens",
      "outputs": [],
      "stateMutability": "payable",
      "type": "function"
    },
    {
      "inputs": [
        {
          "internalType": "address",
          "name": "tokenAddress",
          "type": "address"
        },
        {
          "internalType": "uint256",
          "name": "tokenAmount",
          "type": "uint256"
        },
        {
          "internalType": "uint256",
          "name": "root",
          "type": "uint256"
        },
        {
          "internalType": "uint256",
          "name": "nullifierHash",
          "type": "uint256"
        },
        {
          "internalType": "uint256[8]",
          "name": "proof",
          "type": "uint256[8]"
        }
      ],
      "name": "buyTokensExact",
      "outputs": [],
      "stateMutability": "payable",
      "type": "function"
    },
    {
      "inputs": [
        {
          "internalType": "uint256",
          "name": "virtualEthReserves",
          "type": "uint256"
        },
        {
          "internalType": "uint256",
          "name": "virtualTokenReserves",
          "type": "uint256"
        },
        {
          "internalType": "uint256",
          "name": "tokenAmount",
          "type": "uint256"
        }
      ],
      "name": "calculateEthAmount",
      "outputs": [
        {
          "internalType": "uint256",
          "name": "",
          "type": "uint256"
        }
      ],
      "stateMutability": "pure",
      "type": "function"
    },
    {
      "inputs": [
        {
          "internalType": "uint256",
          "name": "virtualEthReserves",
          "type": "uint256"
        },
        {
          "internalType": "uint256",
          "name": "virtualTokenReserves",
          "type": "uint256"
        },
        {
          "internalType": "uint256",
          "name": "ethAmount",
          "type": "uint256"
        }
      ],
      "name": "calculateTokenAmount",
      "outputs": [
        {
          "internalType": "uint256",
          "name": "",
          "type": "uint256"
        }
      ],
      "stateMutability": "pure",
      "type": "function"
    },
    {
      "inputs": [
        {
          "internalType": "string",
          "name": "name",
          "type": "string"
        },
        {
          "internalType": "string",
          "name": "symbol",
          "type": "string"
        },
        {
          "internalType": "string",
          "name": "metadataURI",
          "type": "string"
        }
      ],
      "name": "createToken",
      "outputs": [
        {
          "internalType": "address",
          "name": "",
          "type": "address"
        }
      ],
      "stateMutability": "nonpayable",
      "type": "function"
    },
    {
      "inputs": [],
      "name": "getAllTokens",
      "outputs": [
        {
          "internalType": "address[]",
          "name": "",
          "type": "address[]"
        }
      ],
      "stateMutability": "view",
      "type": "function"
    },
    {
      "inputs": [
        {
          "internalType": "address",
          "name": "user",
          "type": "address"
        }
      ],
      "name": "getDailyMintedAmount",
      "outputs": [
        {
          "internalType": "uint256",
          "name": "",
          "type": "uint256"
        }
      ],
      "stateMutability": "view",
      "type": "function"
    },
    {
      "inputs": [
        {
          "internalType": "address",
          "name": "tokenAddress",
          "type": "address"
        },
        {
          "internalType": "uint256",
          "name": "tokenAmount",
          "type": "uint256"
        }
      ],
      "name": "getEthRequiredForTokens",
      "outputs": [
        {
          "internalType": "uint256",
          "name": "",
          "type": "uint256"
        }
      ],
      "stateMutability": "view",
      "type": "function"
    },
    {
      "inputs": [
        {
          "internalType": "address",
          "name": "user",
          "type": "address"
        }
      ],
      "name": "getRemainingDailyLimit",
      "outputs": [
        {
          "internalType": "uint256",
          "name": "",
          "type": "uint256"
        }
      ],
      "stateMutability": "view",
      "type": "function"
    },
    {
      "inputs": [],
      "name": "getTokenCount",
      "outputs": [
        {
          "internalType": "uint256",
          "name": "",
          "type": "uint256"
        }
      ],
      "stateMutability": "view",
      "type": "function"
    },
    {
      "inputs": [
        {
          "internalType": "address",
          "name": "tokenAddress",
          "type": "address"
        }
      ],
      "name": "getTokenPrice",
      "outputs": [
        {
          "internalType": "uint256",
          "name": "",
          "type": "uint256"
        }
      ],
      "stateMutability": "view",
      "type": "function"
    },
    {
      "inputs": [
        {
          "internalType": "address",
          "name": "",
          "type": "address"
        }
      ],
      "name": "isToken",
      "outputs": [
        {
          "internalType": "bool",
          "name": "",
          "type": "bool"
        }
      ],
      "stateMutability": "view",
      "type": "function"
    },
    {
      "inputs": [],
      "name": "owner",
      "outputs": [
        {
          "internalType": "address",
          "name": "",
          "type": "address"
        }
      ],
      "stateMutability": "view",
      "type": "function"
    },
    {
      "inputs": [],
      "name": "platformFees",
      "outputs": [
        {
          "internalType": "uint256",
          "name": "",
          "type": "uint256"
        }
      ],
      "stateMutability": "view",
      "type": "function"
    },
    {
      "inputs": [],
      "name": "renounceOwnership",
      "outputs": [],
      "stateMutability": "nonpayable",
      "type": "function"
    },
    {
      "inputs": [
        {
          "internalType": "address",
          "name": "tokenAddress",
          "type": "address"
        },
        {
          "internalType": "uint256",
          "name": "tokenAmount",
          "type": "uint256"
        }
      ],
      "name": "sellTokens",
      "outputs": [],
      "stateMutability": "nonpayable",
      "type": "function"
    },
    {
      "inputs": [
        {
          "internalType": "address",
          "name": "",
          "type": "address"
        }
      ],
      "name": "tokens",
      "outputs": [
        {
          "internalType": "address",
          "name": "creator",
          "type": "address"
        },
        {
          "internalType": "string",
          "name": "name",
          "type": "string"
        },
        {
          "internalType": "string",
          "name": "symbol",
          "type": "string"
        },
        {
          "internalType": "string",
          "name": "metadataURI",
          "type": "string"
        },
        {
          "internalType": "uint256",
          "name": "virtualEthReserves",
          "type": "uint256"
        },
        {
          "internalType": "uint256",
          "name": "virtualTokenReserves",
          "type": "uint256"
        },
        {
          "internalType": "uint256",
          "name": "totalSupply",
          "type": "uint256"
        },
        {
          "internalType": "uint256",
          "name": "creatorFees",
          "type": "uint256"
        },
        {
          "internalType": "uint256",
          "name": "createdAt",
          "type": "uint256"
        }
      ],
      "stateMutability": "view",
      "type": "function"
    },
    {
      "inputs": [
        {
          "internalType": "address",
          "name": "newOwner",
          "type": "address"
        }
      ],
      "name": "transferOwnership",
      "outputs": [],
      "stateMutability": "nonpayable",
      "type": "function"
    },
    {
      "inputs": [
        {
          "internalType": "address",
          "name": "tokenAddress",
          "type": "address"
        }
      ],
      "name": "withdrawCreatorFees",
      "outputs": [],
      "stateMutability": "nonpayable",
      "type": "function"
    },
    {
      "inputs": [],
      "name": "withdrawPlatformFees",
      "outputs": [],
      "stateMutability": "nonpayable",
      "type": "function"
    },
    {
      "stateMutability": "payable",
      "type": "receive"
    }
  ],
  "transactionHash": "0x141c124ae21789d17c117bff60a7b4c04fb273e34481be5d51a4d4271e3999b1",
  "args": [
    "0x42FF98C4E85212a5D31358ACbFe76a621b50fC02",
    "app_staging_63bdbf24a4508f0f971c7311107ffa1c",
    "buy-token"
  ],
  "numDeployments": 2,
  "solcInputHash": "6c43a7f1cd5353bb724ba5884ee9cd5f",
  "bytecode": "0x60e0604052600160c0523480156200001657600080fd5b5060405162003e7038038062003e70833981016040819052620000399162000207565b6200004433620000b3565b600180556001600160a01b038316608052604051620000a69062000092906200007290859060200162000291565b6040516020818303038152906040526200010360201b62001e461760201c565b8260405160200162000072929190620002af565b60a05250620002d7915050565b600080546001600160a01b038381166001600160a01b0319831681178455604051919092169283917f8be0079c531659141344cd1fd0a4f28419497f9722a3daafe3b4186f6b6457e09190a35050565b60006008826040516020016200011a919062000291565b60408051601f198184030181529190528051602090910120901c92915050565b634e487b7160e01b600052604160045260246000fd5b60005b838110156200016d57818101518382015260200162000153565b50506000910152565b600082601f8301126200018857600080fd5b81516001600160401b0380821115620001a557620001a56200013a565b604051601f8301601f19908116603f01168101908282118183101715620001d057620001d06200013a565b81604052838152866020858801011115620001ea57600080fd5b620001fd84602083016020890162000150565b9695505050505050565b6000806000606084860312156200021d57600080fd5b83516001600160a01b03811681146200023557600080fd5b60208501519093506001600160401b03808211156200025357600080fd5b620002618783880162000176565b935060408601519150808211156200027857600080fd5b50620002878682870162000176565b9150509250925092565b60008251620002a581846020870162000150565b9190910192915050565b82815260008251620002c981602085016020870162000150565b919091016020019392505050565b60805160a05160c051613b69620003076000396000611f5701526000611fbc01526000611f270152613b696000f3fe608060405260043610620001df5760003560e01c806378a8956711620000ff578063d02641a01162000095578063e4860339116200006c578063e486033914620004ec578063ec37d2591462000528578063f2fde38b146200054d578063f4c5cdca146200057257600080fd5b8063d02641a0146200048a578063d0b7830b14620004af578063dabba26414620004c757600080fd5b8063a7c4abdb11620000d6578063a7c4abdb1462000429578063a9854b01146200044e578063bc69120014620002e2578063c464fe65146200046557600080fd5b806378a8956714620003cd5780638da5cb5b14620003e457806394aed7d0146200040457600080fd5b80632a5c792a116200017557806337599dcc116200014c57806337599dcc146200034557806361a52a36146200035e578063634282af1462000377578063715018a614620003b557600080fd5b80632a5c792a14620002f95780632bcb160b14620003205780632d11c58a14620002e257600080fd5b806319f3736111620001b657806319f3736114620002565780631b1158ab146200029b5780632466d43814620002bd5780632930fa4914620002e257600080fd5b806304aaa37214620001ec5780630a167cf1146200021f578063194a4e7e146200023e57600080fd5b36620001e757005b600080fd5b348015620001f957600080fd5b506200020c692a5a058fc295ed00000081565b6040519081526020015b60405180910390f35b3480156200022c57600080fd5b506200020c68056bc75e2d6310000081565b3480156200024b57600080fd5b506200020c60055481565b3480156200026357600080fd5b506200028a6200027536600462002340565b60036020526000908152604090205460ff1681565b604051901515815260200162000216565b348015620002a857600080fd5b506200020c6b033b2e3c9fd0803ce800000081565b348015620002ca57600080fd5b506200020c620002dc36600462002340565b62000597565b348015620002ef57600080fd5b506200020c606481565b3480156200030657600080fd5b5062000311620005f3565b6040516200021691906200235e565b3480156200032d57600080fd5b506200020c6200033f366004620023ad565b62000657565b6200035c62000356366004620023ed565b6200097c565b005b3480156200036b57600080fd5b506200020c6201518081565b3480156200038457600080fd5b506200039c620003963660046200243a565b62000bee565b6040516001600160a01b03909116815260200162000216565b348015620003c257600080fd5b506200035c62000c19565b348015620003da57600080fd5b506004546200020c565b348015620003f157600080fd5b506000546001600160a01b03166200039c565b3480156200041157600080fd5b506200039c62000423366004620024ff565b62000c31565b3480156200043657600080fd5b506200020c6200044836600462002591565b62000e41565b6200035c6200045f366004620025be565b62000e7d565b3480156200047257600080fd5b506200035c62000484366004620023ad565b6200120d565b3480156200049757600080fd5b506200020c620004a936600462002340565b62001584565b348015620004bc57600080fd5b506200035c62001820565b348015620004d457600080fd5b506200020c620004e636600462002591565b62001927565b348015620004f957600080fd5b50620005116200050b36600462002340565b62001959565b604051620002169998979695949392919062002669565b3480156200053557600080fd5b506200020c6200054736600462002340565b62001b5a565b3480156200055a57600080fd5b506200035c6200056c36600462002340565b62001c02565b3480156200057f57600080fd5b506200035c6200059136600462002340565b62001c81565b600080620005a9620151804262002700565b6001600160a01b038416600090815260086020526040902054909150819003620005ea5750506001600160a01b031660009081526007602052604090205490565b50600092915050565b606060048054806020026020016040519081016040528092919081815260200182805480156200064d57602002820191906000526020600020905b81546001600160a01b031681526001909101906020018083116200062e575b5050505050905090565b6001600160a01b03821660009081526003602052604081205460ff166200069b5760405162461bcd60e51b8152600401620006929062002723565b60405180910390fd5b60008211620006f95760405162461bcd60e51b815260206004820152602360248201527f546f6b656e20616d6f756e74206d75737420626520677265617465722074686160448201526206e20360ec1b606482015260840162000692565b6001600160a01b0380841660009081526002602090815260408083208151610120810190925280549094168152600184018054939491939192840191620007409062002751565b80601f01602080910402602001604051908101604052809291908181526020018280546200076e9062002751565b8015620007bf5780601f106200079357610100808354040283529160200191620007bf565b820191906000526020600020905b815481529060010190602001808311620007a157829003601f168201915b50505050508152602001600282018054620007da9062002751565b80601f0160208091040260200160405190810160405280929190818152602001828054620008089062002751565b8015620008595780601f106200082d5761010080835404028352916020019162000859565b820191906000526020600020905b8154815290600101906020018083116200083b57829003601f168201915b50505050508152602001600382018054620008749062002751565b80601f0160208091040260200160405190810160405280929190818152602001828054620008a29062002751565b8015620008f35780601f10620008c757610100808354040283529160200191620008f3565b820191906000526020600020905b815481529060010190602001808311620008d557829003601f168201915b5050505050815260200160048201548152602001600582015481526020016006820154815260200160078201548152602001600882015481525050905060006200094782608001518360a001518662001927565b9050620009716200095c60646127106200278d565b6200096a8361271062001e7d565b9062001e8b565b925050505b92915050565b6200098662001e99565b6001600160a01b03841660009081526003602052604090205460ff16620009c15760405162461bcd60e51b8152600401620006929062002723565b6000341162000a035760405162461bcd60e51b815260206004820152600d60248201526c09aeae6e840e6cadcc8408aa89609b1b604482015260640162000692565b62000a113384848462001ef4565b6001600160a01b038416600090815260026020526040812090349062000a406127106200096a84606462001e7d565b9050600062000a50838362002096565b9050600062000a69856004015486600501548462000e41565b905062000a773382620020a4565b600485015462000a889083620021b5565b6004860155600585015462000a9e908262002096565b6005860155600685015462000ab49082620021b5565b60068601556040516340c10f1960e01b8152336004820152602481018290526001600160a01b038a16906340c10f1990604401600060405180830381600087803b15801562000b0257600080fd5b505af115801562000b17573d6000803e3d6000fd5b5050505062000b273382620021c3565b600062000b3d6127106200096a86606462001e7d565b9050600062000b4d858362002096565b600788015490915062000b619083620021b5565b600788015560055462000b759082620021b5565b6005908155600488015490880154604080518981526020810187905290810192909252606082015233906001600160a01b038d16907f4c6d269da7a2da288d1319084a8b9a593a676b9b529b0449c2faa9bab82c22719060800160405180910390a35050505050505062000be860018055565b50505050565b6004818154811062000bff57600080fd5b6000918252602090912001546001600160a01b0316905081565b62000c2362002269565b62000c2f6000620022c5565b565b600062000c3d62001e99565b600084843360405162000c509062002315565b62000c5e93929190620027a3565b604051809103906000f08015801562000c7b573d6000803e3d6000fd5b506040805161012081018252338152602080820189815282840189905260608301889052692a5a058fc295ed00000060808401526b033b2e3c9fd0803ce800000060a0840152600060c0840181905260e08401819052426101008501526001600160a01b038681168252600290935293909320825181546001600160a01b031916921691909117815591519293508392909190600182019062000d1f908262002837565b506040820151600282019062000d36908262002837565b506060820151600382019062000d4d908262002837565b50608082015160048083019190915560a0830151600583015560c0830151600683015560e08301516007830155610100909201516008909101556001600160a01b038216600081815260036020526040808220805460ff1916600190811790915584549081018555939091527f8a35acfbc15ff81a39ae7d344fd709f28e8600b4aa8c65c6b64bfe7fe36bd19b90920180546001600160a01b0319168217905590513391907ffe210c99153843bc67efa2e9a61ec1d63c505e379b9dcf05a9520e84e36e60639062000e25908a908a908a9062002904565b60405180910390a391505062000e3a60018055565b9392505050565b60008062000e508584620021b5565b9050600062000e65826200096a888862001e7d565b905062000e73858262002096565b9695505050505050565b62000e8762001e99565b6001600160a01b03851660009081526003602052604090205460ff1662000ec25760405162461bcd60e51b8152600401620006929062002723565b6000841162000f065760405162461bcd60e51b815260206004820152600f60248201526e4d7573742062757920746f6b656e7360881b604482015260640162000692565b62000f143384848462001ef4565b6001600160a01b038516600090815260026020526040902062000f383386620020a4565b600062000f4f826004015483600501548862001927565b9050600062000f7462000f6660646127106200278d565b6200096a8461271062001e7d565b90508034101562000fc05760405162461bcd60e51b8152602060048201526015602482015274125b9cdd59999a58da595b9d08115512081cd95b9d605a1b604482015260640162000692565b600062000fd66127106200096a84606462001e7d565b9050600062000fe6838362002096565b600486015490915062000ffa9082620021b5565b6004860155600585015462001010908a62002096565b6005860155600685015462001026908a620021b5565b60068601556040516340c10f1960e01b8152336004820152602481018a90526001600160a01b038b16906340c10f1990604401600060405180830381600087803b1580156200107457600080fd5b505af115801562001089573d6000803e3d6000fd5b5050505062001099338a620021c3565b6000620010af6127106200096a85606462001e7d565b90506000620010bf848362002096565b6007880154909150620010d39083620021b5565b6007880155600554620010e79082620021b5565b600555348510156200119757600062001101348762002096565b604051909150600090339083908381818185875af1925050503d806000811462001148576040519150601f19603f3d011682016040523d82523d6000602084013e6200114d565b606091505b5050905080620011945760405162461bcd60e51b8152602060048201526011602482015270115512081c99599d5b990819985a5b1959607a1b604482015260640162000692565b50505b6004870154600588015460408051888152602081018f905290810192909252606082015233906001600160a01b038e16907f4c6d269da7a2da288d1319084a8b9a593a676b9b529b0449c2faa9bab82c22719060800160405180910390a3505050505050506200120660018055565b5050505050565b6200121762001e99565b6001600160a01b03821660009081526003602052604090205460ff16620012525760405162461bcd60e51b8152600401620006929062002723565b60008111620012975760405162461bcd60e51b815260206004820152601060248201526f4d7573742073656c6c20746f6b656e7360801b604482015260640162000692565b6001600160a01b0382166000818152600260205260409081902090516370a0823160e01b8152336004820152909183916370a0823190602401602060405180830381865afa158015620012ee573d6000803e3d6000fd5b505050506040513d601f19601f8201168201806040525081019062001314919062002943565b1015620013645760405162461bcd60e51b815260206004820152601a60248201527f496e73756666696369656e7420746f6b656e2062616c616e6365000000000000604482015260640162000692565b60006200137b826004015483600501548562001927565b90506000620013936127106200096a84606462001e7d565b90506000620013a3838362002096565b6004850154909150620013b7908462002096565b60048501556005840154620013cd9086620021b5565b60058501556006840154620013e3908662002096565b6006850155604051632770a7eb60e21b8152336004820152602481018690526001600160a01b03871690639dc29fac90604401600060405180830381600087803b1580156200143157600080fd5b505af115801562001446573d6000803e3d6000fd5b505050506000620014696127106200096a60648662001e7d90919063ffffffff16565b9050600062001479848362002096565b60078701549091506200148d9083620021b5565b6007870155600554620014a19082620021b5565b600555604051600090339085908381818185875af1925050503d8060008114620014e8576040519150601f19603f3d011682016040523d82523d6000602084013e620014ed565b606091505b5050905080620015115760405162461bcd60e51b815260040162000692906200295d565b60048701546005880154604080518b8152602081018a905290810192909252606082015233906001600160a01b038b16907f34f38731fae2221a0127cde5769237f08a73e828efb7c9a19e4c6fa171ff763d9060800160405180910390a3505050505050506200158060018055565b5050565b6001600160a01b03811660009081526003602052604081205460ff16620015bf5760405162461bcd60e51b8152600401620006929062002723565b6001600160a01b0380831660009081526002602090815260408083208151610120810190925280549094168152600184018054939491939192840191620016069062002751565b80601f0160208091040260200160405190810160405280929190818152602001828054620016349062002751565b8015620016855780601f10620016595761010080835404028352916020019162001685565b820191906000526020600020905b8154815290600101906020018083116200166757829003601f168201915b50505050508152602001600282018054620016a09062002751565b80601f0160208091040260200160405190810160405280929190818152602001828054620016ce9062002751565b80156200171f5780601f10620016f3576101008083540402835291602001916200171f565b820191906000526020600020905b8154815290600101906020018083116200170157829003601f168201915b505050505081526020016003820180546200173a9062002751565b80601f0160208091040260200160405190810160405280929190818152602001828054620017689062002751565b8015620017b95780601f106200178d57610100808354040283529160200191620017b9565b820191906000526020600020905b8154815290600101906020018083116200179b57829003601f168201915b5050505050815260200160048201548152602001600582015481526020016006820154815260200160078201548152602001600882015481525050905062000e3a8160a001516200096a670de0b6b3a7640000846080015162001e7d90919063ffffffff16565b6200182a62002269565b6200183462001e99565b600060055411620018885760405162461bcd60e51b815260206004820152601c60248201527f4e6f20706c6174666f726d206665657320746f20776974686472617700000000604482015260640162000692565b6005805460009182905590620018a66000546001600160a01b031690565b6001600160a01b03168260405160006040518083038185875af1925050503d8060008114620018f2576040519150601f19603f3d011682016040523d82523d6000602084013e620018f7565b606091505b50509050806200191b5760405162461bcd60e51b815260040162000692906200295d565b505062000c2f60018055565b600080620019368484620021b5565b905060006200194b826200096a888862001e7d565b905062000e73868262002096565b600260205260009081526040902080546001820180546001600160a01b039092169291620019879062002751565b80601f0160208091040260200160405190810160405280929190818152602001828054620019b59062002751565b801562001a065780601f10620019da5761010080835404028352916020019162001a06565b820191906000526020600020905b815481529060010190602001808311620019e857829003601f168201915b50505050509080600201805462001a1d9062002751565b80601f016020809104026020016040519081016040528092919081815260200182805462001a4b9062002751565b801562001a9c5780601f1062001a705761010080835404028352916020019162001a9c565b820191906000526020600020905b81548152906001019060200180831162001a7e57829003601f168201915b50505050509080600301805462001ab39062002751565b80601f016020809104026020016040519081016040528092919081815260200182805462001ae19062002751565b801562001b325780601f1062001b065761010080835404028352916020019162001b32565b820191906000526020600020905b81548152906001019060200180831162001b1457829003601f168201915b5050505050908060040154908060050154908060060154908060070154908060080154905089565b60008062001b6c620151804262002700565b6001600160a01b03841660009081526008602052604090205490915081900362001bf1576001600160a01b03831660009081526007602052604090205468056bc75e2d631000001162001bc25750600092915050565b6001600160a01b03831660009081526007602052604090205462000e3a9068056bc75e2d631000009062002096565b5068056bc75e2d6310000092915050565b62001c0c62002269565b6001600160a01b03811662001c735760405162461bcd60e51b815260206004820152602660248201527f4f776e61626c653a206e6577206f776e657220697320746865207a65726f206160448201526564647265737360d01b606482015260840162000692565b62001c7e81620022c5565b50565b62001c8b62001e99565b6001600160a01b03811660009081526003602052604090205460ff1662001cc65760405162461bcd60e51b8152600401620006929062002723565b6001600160a01b0381811660009081526002602052604090208054909116331462001d345760405162461bcd60e51b815260206004820152601960248201527f4f6e6c792063726561746f722063616e20776974686472617700000000000000604482015260640162000692565b600081600701541162001d805760405162461bcd60e51b81526020600482015260136024820152724e6f206665657320746f20776974686472617760681b604482015260640162000692565b600781018054600091829055604051909190339083908381818185875af1925050503d806000811462001dd0576040519150601f19603f3d011682016040523d82523d6000602084013e62001dd5565b606091505b505090508062001df95760405162461bcd60e51b815260040162000692906200295d565b60405182815233906001600160a01b038616907f1d9bd648787e565657449bd337e6ebf44646582a0a8eac81d051b198bf2ff49f9060200160405180910390a350505062001c7e60018055565b600060088260405160200162001e5d91906200298a565b60408051601f198184030181529190528051602090910120901c92915050565b600062000e3a8284620029a8565b600062000e3a828462002700565b60026001540362001eed5760405162461bcd60e51b815260206004820152601f60248201527f5265656e7472616e637947756172643a207265656e7472616e742063616c6c00604482015260640162000692565b6002600155565b60008281526006602052604090205460ff161562001f2557604051632ec8265960e11b815260040160405180910390fd5b7f00000000000000000000000000000000000000000000000000000000000000006001600160a01b0316633bc778e3847f000000000000000000000000000000000000000000000000000000000000000062001fb98860405160200162001fa4919060609190911b6bffffffffffffffffffffffff1916815260140190565b60405160208183030381529060405262001e46565b867f0000000000000000000000000000000000000000000000000000000000000000876040518763ffffffff1660e01b815260040162001fff96959493929190620029c2565b60006040518083038186803b1580156200201857600080fd5b505afa1580156200202d573d6000803e3d6000fd5b50505060008381526006602052604090819020805460ff19166001179055516001600160a01b03861691507f3ce3861f233f7cc26caa8426b30e97a5b7afabb23448fb55227ab3186106fa0790620020889085815260200190565b60405180910390a250505050565b600062000e3a82846200278d565b6000620020b5620151804262002700565b6001600160a01b03841660009081526008602052604081205491925090829003620020f557506001600160a01b0383166000908152600760205260409020545b60008111801562002119575068056bc75e2d63100000620021178285620021b5565b115b1562000be8576001600160a01b0384167f357d8e0abb9f211e3f210d5c57c8fe85715305557eb5b7127dcaefe22dd62b91620021568386620021b5565b6040805191825268056bc75e2d6310000060208301520160405180910390a260405162461bcd60e51b815260206004820152601460248201527311185a5b1e481b1a5b5a5d08195e18d95959195960621b604482015260640162000692565b600062000e3a8284620029fa565b6000620021d4620151804262002700565b6001600160a01b0384166000908152600860205260409020549091508190036200223b576001600160a01b0383166000908152600760205260409020546200221d9083620021b5565b6001600160a01b038416600090815260076020526040902055505050565b6001600160a01b0383166000908152600760209081526040808320859055600890915290208190555b505050565b6000546001600160a01b0316331462000c2f5760405162461bcd60e51b815260206004820181905260248201527f4f776e61626c653a2063616c6c6572206973206e6f7420746865206f776e6572604482015260640162000692565b600080546001600160a01b038381166001600160a01b0319831681178455604051919092169283917f8be0079c531659141344cd1fd0a4f28419497f9722a3daafe3b4186f6b6457e09190a35050565b6111238062002a1183390190565b80356001600160a01b03811681146200233b57600080fd5b919050565b6000602082840312156200235357600080fd5b62000e3a8262002323565b6020808252825182820181905260009190848201906040850190845b81811015620023a15783516001600160a01b0316835292840192918401916001016200237a565b50909695505050505050565b60008060408385031215620023c157600080fd5b620023cc8362002323565b946020939093013593505050565b8061010081018310156200097657600080fd5b60008060008061016085870312156200240557600080fd5b620024108562002323565b935060208501359250604085013591506200242f8660608701620023da565b905092959194509250565b6000602082840312156200244d57600080fd5b5035919050565b634e487b7160e01b600052604160045260246000fd5b600082601f8301126200247c57600080fd5b813567ffffffffffffffff808211156200249a576200249a62002454565b604051601f8301601f19908116603f01168101908282118183101715620024c557620024c562002454565b81604052838152866020858801011115620024df57600080fd5b836020870160208301376000602085830101528094505050505092915050565b6000806000606084860312156200251557600080fd5b833567ffffffffffffffff808211156200252e57600080fd5b6200253c878388016200246a565b945060208601359150808211156200255357600080fd5b62002561878388016200246a565b935060408601359150808211156200257857600080fd5b5062002587868287016200246a565b9150509250925092565b600080600060608486031215620025a757600080fd5b505081359360208301359350604090920135919050565b60008060008060006101808688031215620025d857600080fd5b620025e38662002323565b9450602086013593506040860135925060608601359150620026098760808801620023da565b90509295509295909350565b60005b838110156200263257818101518382015260200162002618565b50506000910152565b600081518084526200265581602086016020860162002615565b601f01601f19169290920160200192915050565b6001600160a01b038a16815261012060208201819052600090620026908382018c6200263b565b90508281036040840152620026a6818b6200263b565b90508281036060840152620026bc818a6200263b565b6080840198909852505060a081019490945260c084019290925260e083015261010090910152949350505050565b634e487b7160e01b600052601160045260246000fd5b6000826200271e57634e487b7160e01b600052601260045260246000fd5b500490565b602080825260149082015273151bdad95b88191bd95cc81b9bdd08195e1a5cdd60621b604082015260600190565b600181811c908216806200276657607f821691505b6020821081036200278757634e487b7160e01b600052602260045260246000fd5b50919050565b81810381811115620009765762000976620026ea565b606081526000620027b860608301866200263b565b8281036020840152620027cc81866200263b565b91505060018060a01b0383166040830152949350505050565b601f8211156200226457600081815260208120601f850160051c810160208610156200280e5750805b601f850160051c820191505b818110156200282f578281556001016200281a565b505050505050565b815167ffffffffffffffff81111562002854576200285462002454565b6200286c8162002865845462002751565b84620027e5565b602080601f831160018114620028a457600084156200288b5750858301515b600019600386901b1c1916600185901b1785556200282f565b600085815260208120601f198616915b82811015620028d557888601518255948401946001909101908401620028b4565b5085821015620028f45787850151600019600388901b60f8161c191681555b5050505050600190811b01905550565b6060815260006200291960608301866200263b565b82810360208401526200292d81866200263b565b9050828103604084015262000e7381856200263b565b6000602082840312156200295657600080fd5b5051919050565b602080825260139082015272115512081d1c985b9cd9995c8819985a5b1959606a1b604082015260600190565b600082516200299e81846020870162002615565b9190910192915050565b8082028115828204841417620009765762000976620026ea565b60006101a0820190508782528660208301528560408301528460608301528360808301526101008360a0840137979650505050505050565b80820180821115620009765762000976620026ea56fe60a06040523480156200001157600080fd5b5060405162001123380380620011238339810160408190526200003491620001a3565b82826003620000448382620002bf565b506004620000538282620002bf565b505050620000706200006a6200008860201b60201c565b6200008c565b336080526200007f816200008c565b5050506200038b565b3390565b600580546001600160a01b038381166001600160a01b0319831681179093556040519116919082907f8be0079c531659141344cd1fd0a4f28419497f9722a3daafe3b4186f6b6457e090600090a35050565b634e487b7160e01b600052604160045260246000fd5b600082601f8301126200010657600080fd5b81516001600160401b0380821115620001235762000123620000de565b604051601f8301601f19908116603f011681019082821181831017156200014e576200014e620000de565b816040528381526020925086838588010111156200016b57600080fd5b600091505b838210156200018f578582018301518183018401529082019062000170565b600093810190920192909252949350505050565b600080600060608486031215620001b957600080fd5b83516001600160401b0380821115620001d157600080fd5b620001df87838801620000f4565b94506020860151915080821115620001f657600080fd5b506200020586828701620000f4565b604086015190935090506001600160a01b03811681146200022557600080fd5b809150509250925092565b600181811c908216806200024557607f821691505b6020821081036200026657634e487b7160e01b600052602260045260246000fd5b50919050565b601f821115620002ba57600081815260208120601f850160051c81016020861015620002955750805b601f850160051c820191505b81811015620002b657828155600101620002a1565b5050505b505050565b81516001600160401b03811115620002db57620002db620000de565b620002f381620002ec845462000230565b846200026c565b602080601f8311600181146200032b5760008415620003125750858301515b600019600386901b1c1916600185901b178555620002b6565b600085815260208120601f198616915b828110156200035c578886015182559484019460019091019084016200033b565b50858210156200037b5787850151600019600388901b60f8161c191681555b5050505050600190811b01905550565b608051610d6e620003b5600039600081816101150152818161038e015261043c0152610d6e6000f3fe608060405234801561001057600080fd5b506004361061010b5760003560e01c806370a08231116100a25780639dc29fac116100715780639dc29fac14610232578063a457c2d714610245578063a9059cbb14610258578063dd62ed3e1461026b578063f2fde38b1461027e57600080fd5b806370a08231146101e8578063715018a6146102115780638da5cb5b1461021957806395d89b411461022a57600080fd5b806323b872dd116100de57806323b872dd1461019e578063313ce567146101b157806339509351146101c057806340c10f19146101d357600080fd5b806302669b521461011057806306fdde0314610154578063095ea7b31461016957806318160ddd1461018c575b600080fd5b6101377f000000000000000000000000000000000000000000000000000000000000000081565b6040516001600160a01b0390911681526020015b60405180910390f35b61015c610291565b60405161014b9190610bb8565b61017c610177366004610c22565b610323565b604051901515815260200161014b565b6002545b60405190815260200161014b565b61017c6101ac366004610c4c565b61033d565b6040516012815260200161014b565b61017c6101ce366004610c22565b610361565b6101e66101e1366004610c22565b610383565b005b6101906101f6366004610c88565b6001600160a01b031660009081526020819052604090205490565b6101e661040e565b6005546001600160a01b0316610137565b61015c610422565b6101e6610240366004610c22565b610431565b61017c610253366004610c22565b6104b3565b61017c610266366004610c22565b61052e565b610190610279366004610caa565b61053c565b6101e661028c366004610c88565b610567565b6060600380546102a090610cdd565b80601f01602080910402602001604051908101604052809291908181526020018280546102cc90610cdd565b80156103195780601f106102ee57610100808354040283529160200191610319565b820191906000526020600020905b8154815290600101906020018083116102fc57829003601f168201915b5050505050905090565b6000336103318185856105e0565b60019150505b92915050565b60003361034b858285610705565b61035685858561077f565b506001949350505050565b600033610331818585610374838361053c565b61037e9190610d17565b6105e0565b336001600160a01b037f000000000000000000000000000000000000000000000000000000000000000016146104005760405162461bcd60e51b815260206004820152601760248201527f4f6e6c79206c61756e63687061642063616e206d696e7400000000000000000060448201526064015b60405180910390fd5b61040a8282610923565b5050565b6104166109e2565b6104206000610a3c565b565b6060600480546102a090610cdd565b336001600160a01b037f000000000000000000000000000000000000000000000000000000000000000016146104a95760405162461bcd60e51b815260206004820152601760248201527f4f6e6c79206c61756e63687061642063616e206275726e00000000000000000060448201526064016103f7565b61040a8282610a8e565b600033816104c1828661053c565b9050838110156105215760405162461bcd60e51b815260206004820152602560248201527f45524332303a2064656372656173656420616c6c6f77616e63652062656c6f77604482015264207a65726f60d81b60648201526084016103f7565b61035682868684036105e0565b60003361033181858561077f565b6001600160a01b03918216600090815260016020908152604080832093909416825291909152205490565b61056f6109e2565b6001600160a01b0381166105d45760405162461bcd60e51b815260206004820152602660248201527f4f776e61626c653a206e6577206f776e657220697320746865207a65726f206160448201526564647265737360d01b60648201526084016103f7565b6105dd81610a3c565b50565b6001600160a01b0383166106425760405162461bcd60e51b8152602060048201526024808201527f45524332303a20617070726f76652066726f6d20746865207a65726f206164646044820152637265737360e01b60648201526084016103f7565b6001600160a01b0382166106a35760405162461bcd60e51b815260206004820152602260248201527f45524332303a20617070726f766520746f20746865207a65726f206164647265604482015261737360f01b60648201526084016103f7565b6001600160a01b0383811660008181526001602090815260408083209487168084529482529182902085905590518481527f8c5be1e5ebec7d5bd14f71427d1e84f3dd0314c0f7b2291e5b200ac8c7c3b92591015b60405180910390a3505050565b6000610711848461053c565b90506000198114610779578181101561076c5760405162461bcd60e51b815260206004820152601d60248201527f45524332303a20696e73756666696369656e7420616c6c6f77616e636500000060448201526064016103f7565b61077984848484036105e0565b50505050565b6001600160a01b0383166107e35760405162461bcd60e51b815260206004820152602560248201527f45524332303a207472616e736665722066726f6d20746865207a65726f206164604482015264647265737360d81b60648201526084016103f7565b6001600160a01b0382166108455760405162461bcd60e51b815260206004820152602360248201527f45524332303a207472616e7366657220746f20746865207a65726f206164647260448201526265737360e81b60648201526084016103f7565b6001600160a01b038316600090815260208190526040902054818110156108bd5760405162461bcd60e51b815260206004820152602660248201527f45524332303a207472616e7366657220616d6f756e7420657863656564732062604482015265616c616e636560d01b60648201526084016103f7565b6001600160a01b03848116600081815260208181526040808320878703905593871680835291849020805487019055925185815290927fddf252ad1be2c89b69c2b068fc378daa952ba7f163c4a11628f55a4df523b3ef910160405180910390a3610779565b6001600160a01b0382166109795760405162461bcd60e51b815260206004820152601f60248201527f45524332303a206d696e7420746f20746865207a65726f20616464726573730060448201526064016103f7565b806002600082825461098b9190610d17565b90915550506001600160a01b038216600081815260208181526040808320805486019055518481527fddf252ad1be2c89b69c2b068fc378daa952ba7f163c4a11628f55a4df523b3ef910160405180910390a35050565b6005546001600160a01b031633146104205760405162461bcd60e51b815260206004820181905260248201527f4f776e61626c653a2063616c6c6572206973206e6f7420746865206f776e657260448201526064016103f7565b600580546001600160a01b038381166001600160a01b0319831681179093556040519116919082907f8be0079c531659141344cd1fd0a4f28419497f9722a3daafe3b4186f6b6457e090600090a35050565b6001600160a01b038216610aee5760405162461bcd60e51b815260206004820152602160248201527f45524332303a206275726e2066726f6d20746865207a65726f206164647265736044820152607360f81b60648201526084016103f7565b6001600160a01b03821660009081526020819052604090205481811015610b625760405162461bcd60e51b815260206004820152602260248201527f45524332303a206275726e20616d6f756e7420657863656564732062616c616e604482015261636560f01b60648201526084016103f7565b6001600160a01b0383166000818152602081815260408083208686039055600280548790039055518581529192917fddf252ad1be2c89b69c2b068fc378daa952ba7f163c4a11628f55a4df523b3ef91016106f8565b600060208083528351808285015260005b81811015610be557858101830151858201604001528201610bc9565b506000604082860101526040601f19601f8301168501019250505092915050565b80356001600160a01b0381168114610c1d57600080fd5b919050565b60008060408385031215610c3557600080fd5b610c3e83610c06565b946020939093013593505050565b600080600060608486031215610c6157600080fd5b610c6a84610c06565b9250610c7860208501610c06565b9150604084013590509250925092565b600060208284031215610c9a57600080fd5b610ca382610c06565b9392505050565b60008060408385031215610cbd57600080fd5b610cc683610c06565b9150610cd460208401610c06565b90509250929050565b600181811c90821680610cf157607f821691505b602082108103610d1157634e487b7160e01b600052602260045260246000fd5b50919050565b8082018082111561033757634e487b7160e01b600052601160045260246000fdfea26469706673582212206caa8a1f32555e7cd2b71e0966fa0e0574334cf1e211903c75b7cf680b057f9c64736f6c63430008110033a2646970667358221220f47905c84676f4528bb06c07123aac029163140d9799f70310a61af0e174320864736f6c63430008110033",
  "devdoc": {
    "kind": "dev",
    "methods": {
      "buyTokens(address,uint256,uint256,uint256[8])": {
        "details": "Buy tokens using ETH with World ID verification",
        "params": {
          "nullifierHash": "The nullifier hash for this proof",
          "proof": "The zero-knowledge proof",
          "root": "The World ID root to verify against",
          "tokenAddress": "Address of the token to buy"
        }
      },
      "buyTokensExact(address,uint256,uint256,uint256,uint256[8])": {
        "details": "Buy specific amount of tokens with World ID verification",
        "params": {
          "nullifierHash": "The nullifier hash for this proof",
          "proof": "The zero-knowledge proof",
          "root": "The World ID root to verify against",
          "tokenAddress": "Address of the token to buy",
          "tokenAmount": "Amount of tokens to buy"
        }
      },
      "calculateEthAmount(uint256,uint256,uint256)": {
        "details": "Calculate ETH amount for given tokens using bonding curve"
      },
      "calculateTokenAmount(uint256,uint256,uint256)": {
        "details": "Calculate token amount for given ETH using bonding curve"
      },
      "constructor": {
        "params": {
          "_action": "The World ID Action (from Developer Portal)",
          "_appId": "The World ID App ID (from Developer Portal)",
          "_worldId": "The address of the WorldIDRouter that will verify the proofs"
        }
      },
      "createToken(string,string,string)": {
        "details": "Create a new token with bonding curve",
        "params": {
          "metadataURI": "Token metadata URI",
          "name": "Token name",
          "symbol": "Token symbol"
        }
      },
      "getAllTokens()": {
        "details": "Get all tokens"
      },
      "getDailyMintedAmount(address)": {
        "details": "Get user's daily minted amount"
      },
      "getEthRequiredForTokens(address,uint256)": {
        "details": "Get ETH amount required to buy specific number of tokens (including fees)",
        "params": {
          "tokenAddress": "Address of the token",
          "tokenAmount": "Amount of tokens to buy"
        },
        "returns": {
          "_0": "ethAmount ETH amount required (including fees)"
        }
      },
      "getRemainingDailyLimit(address)": {
        "details": "Get user's remaining daily mint limit"
      },
      "getTokenCount()": {
        "details": "Get token count"
      },
      "getTokenPrice(address)": {
        "details": "Get token price in ETH"
      },
      "owner()": {
        "details": "Returns the address of the current owner."
      },
      "renounceOwnership()": {
        "details": "Leaves the contract without owner. It will not be possible to call `onlyOwner` functions. Can only be called by the current owner. NOTE: Renouncing ownership will leave the contract without an owner, thereby disabling any functionality that is only available to the owner."
      },
      "sellTokens(address,uint256)": {
        "details": "Sell tokens for ETH",
        "params": {
          "tokenAddress": "Address of the token to sell",
          "tokenAmount": "Amount of tokens to sell"
        }
      },
      "transferOwnership(address)": {
        "details": "Transfers ownership of the contract to a new account (`newOwner`). Can only be called by the current owner."
      },
      "withdrawCreatorFees(address)": {
        "details": "Withdraw creator fees",
        "params": {
          "tokenAddress": "Address of the token"
        }
      },
      "withdrawPlatformFees()": {
        "details": "Withdraw platform fees (owner only)"
      }
    },
    "version": 1
  },
  "userdoc": {
    "errors": {
      "DailyLimitExceededError()": [
        {
          "notice": "Thrown when daily mint limit is exceeded"
        }
      ],
      "InvalidNullifier()": [
        {
          "notice": "Thrown when attempting to reuse a nullifier"
        }
      ]
    },
    "kind": "user",
    "methods": {},
    "version": 1
  },
  "storageLayout": {
    "storage": [
      {
        "astId": 7,
        "contract": "contracts/TokenLaunchpad.sol:TokenLaunchpad",
        "label": "_owner",
        "offset": 0,
        "slot": "0",
        "type": "t_address"
      },
      {
        "astId": 123,
        "contract": "contracts/TokenLaunchpad.sol:TokenLaunchpad",
        "label": "_status",
        "offset": 0,
        "slot": "1",
        "type": "t_uint256"
      },
      {
        "astId": 2112,
        "contract": "contracts/TokenLaunchpad.sol:TokenLaunchpad",
        "label": "tokens",
        "offset": 0,
        "slot": "2",
        "type": "t_mapping(t_address,t_struct(TokenInfo)2222_storage)"
      },
      {
        "astId": 2116,
        "contract": "contracts/TokenLaunchpad.sol:TokenLaunchpad",
        "label": "isToken",
        "offset": 0,
        "slot": "3",
        "type": "t_mapping(t_address,t_bool)"
      },
      {
        "astId": 2119,
        "contract": "contracts/TokenLaunchpad.sol:TokenLaunchpad",
        "label": "allTokens",
        "offset": 0,
        "slot": "4",
        "type": "t_array(t_address)dyn_storage"
      },
      {
        "astId": 2121,
        "contract": "contracts/TokenLaunchpad.sol:TokenLaunchpad",
        "label": "platformFees",
        "offset": 0,
        "slot": "5",
        "type": "t_uint256"
      },
      {
        "astId": 2133,
        "contract": "contracts/TokenLaunchpad.sol:TokenLaunchpad",
        "label": "nullifierHashes",
        "offset": 0,
        "slot": "6",
        "type": "t_mapping(t_uint256,t_bool)"
      },
      {
        "astId": 2137,
        "contract": "contracts/TokenLaunchpad.sol:TokenLaunchpad",
        "label": "dailyMintedAmount",
        "offset": 0,
        "slot": "7",
        "type": "t_mapping(t_address,t_uint256)"
      },
      {
        "astId": 2141,
        "contract": "contracts/TokenLaunchpad.sol:TokenLaunchpad",
        "label": "lastMintDay",
        "offset": 0,
        "slot": "8",
        "type": "t_mapping(t_address,t_uint256)"
      }
    ],
    "types": {
      "t_address": {
        "encoding": "inplace",
        "label": "address",
        "numberOfBytes": "20"
      },
      "t_array(t_address)dyn_storage": {
        "base": "t_address",
        "encoding": "dynamic_array",
        "label": "address[]",
        "numberOfBytes": "32"
      },
      "t_bool": {
        "encoding": "inplace",
        "label": "bool",
        "numberOfBytes": "1"
      },
      "t_mapping(t_address,t_bool)": {
        "encoding": "mapping",
        "key": "t_address",
        "label": "mapping(address => bool)",
        "numberOfBytes": "32",
        "value": "t_bool"
      },
      "t_mapping(t_address,t_struct(TokenInfo)2222_storage)": {
        "encoding": "mapping",
        "key": "t_address",
        "label": "mapping(address => struct TokenLaunchpad.TokenInfo)",
        "numberOfBytes": "32",
        "value": "t_struct(TokenInfo)2222_storage"
      },
      "t_mapping(t_address,t_uint256)": {
        "encoding": "mapping",
        "key": "t_address",
        "label": "mapping(address => uint256)",
        "numberOfBytes": "32",
        "value": "t_uint256"
      },
      "t_mapping(t_uint256,t_bool)": {
        "encoding": "mapping",
        "key": "t_uint256",
        "label": "mapping(uint256 => bool)",
        "numberOfBytes": "32",
        "value": "t_bool"
      },
      "t_string_storage": {
        "encoding": "bytes",
        "label": "string",
        "numberOfBytes": "32"
      },
      "t_struct(TokenInfo)2222_storage": {
        "encoding": "inplace",
        "label": "struct TokenLaunchpad.TokenInfo",
        "members": [
          {
            "astId": 2205,
            "contract": "contracts/TokenLaunchpad.sol:TokenLaunchpad",
            "label": "creator",
            "offset": 0,
            "slot": "0",
            "type": "t_address"
          },
          {
            "astId": 2207,
            "contract": "contracts/TokenLaunchpad.sol:TokenLaunchpad",
            "label": "name",
            "offset": 0,
            "slot": "1",
            "type": "t_string_storage"
          },
          {
            "astId": 2209,
            "contract": "contracts/TokenLaunchpad.sol:TokenLaunchpad",
            "label": "symbol",
            "offset": 0,
            "slot": "2",
            "type": "t_string_storage"
          },
          {
            "astId": 2211,
            "contract": "contracts/TokenLaunchpad.sol:TokenLaunchpad",
            "label": "metadataURI",
            "offset": 0,
            "slot": "3",
            "type": "t_string_storage"
          },
          {
            "astId": 2213,
            "contract": "contracts/TokenLaunchpad.sol:TokenLaunchpad",
            "label": "virtualEthReserves",
            "offset": 0,
            "slot": "4",
            "type": "t_uint256"
          },
          {
            "astId": 2215,
            "contract": "contracts/TokenLaunchpad.sol:TokenLaunchpad",
            "label": "virtualTokenReserves",
            "offset": 0,
            "slot": "5",
            "type": "t_uint256"
          },
          {
            "astId": 2217,
            "contract": "contracts/TokenLaunchpad.sol:TokenLaunchpad",
            "label": "totalSupply",
            "offset": 0,
            "slot": "6",
            "type": "t_uint256"
          },
          {
            "astId": 2219,
            "contract": "contracts/TokenLaunchpad.sol:TokenLaunchpad",
            "label": "creatorFees",
            "offset": 0,
            "slot": "7",
            "type": "t_uint256"
          },
          {
            "astId": 2221,
            "contract": "contracts/TokenLaunchpad.sol:TokenLaunchpad",
            "label": "createdAt",
            "offset": 0,
            "slot": "8",
            "type": "t_uint256"
          }
        ],
        "numberOfBytes": "288"
      },
      "t_uint256": {
        "encoding": "inplace",
        "label": "uint256",
        "numberOfBytes": "32"
      }
    }
  }
}