{
  "address": "0xF9e92B19E3C458fcc97c372A3C5dc05f27785028",
  "abi": [
    {
      "inputs": [
        {
          "internalType": "contract IWorldID",
          "name": "_worldId",
          "type": "address"
        },
        {
          "internalType": "string",
          "name": "_appId",
          "type": "string"
        },
        {
          "internalType": "string",
          "name": "_action",
          "type": "string"
        },
        {
          "internalType": "string",
          "name": "_tokenCreationAction",
          "type": "string"
        }
      ],
      "stateMutability": "nonpayable",
      "type": "constructor"
    },
    {
      "inputs": [],
      "name": "DailyLimitExceededError",
      "type": "error"
    },
    {
      "inputs": [],
      "name": "InvalidMintAmount",
      "type": "error"
    },
    {
      "inputs": [],
      "name": "TokenCreationCooldownNotMet",
      "type": "error"
    },
    {
      "anonymous": false,
      "inputs": [
        {
          "indexed": true,
          "internalType": "address",
          "name": "token",
          "type": "address"
        },
        {
          "indexed": true,
          "internalType": "address",
          "name": "creator",
          "type": "address"
        },
        {
          "indexed": false,
          "internalType": "uint256",
          "name": "amount",
          "type": "uint256"
        }
      ],
      "name": "CreatorFeesWithdrawn",
      "type": "event"
    },
    {
      "anonymous": false,
      "inputs": [
        {
          "indexed": true,
          "internalType": "address",
          "name": "user",
          "type": "address"
        },
        {
          "indexed": false,
          "internalType": "uint256",
          "name": "attemptedAmount",
          "type": "uint256"
        },
        {
          "indexed": false,
          "internalType": "uint256",
          "name": "dailyLimit",
          "type": "uint256"
        }
      ],
      "name": "DailyLimitExceeded",
      "type": "event"
    },
    {
      "anonymous": false,
      "inputs": [
        {
          "indexed": true,
          "internalType": "address",
          "name": "previousOwner",
          "type": "address"
        },
        {
          "indexed": true,
          "internalType": "address",
          "name": "newOwner",
          "type": "address"
        }
      ],
      "name": "OwnershipTransferred",
      "type": "event"
    },
    {
      "anonymous": false,
      "inputs": [
        {
          "indexed": true,
          "internalType": "address",
          "name": "token",
          "type": "address"
        },
        {
          "indexed": true,
          "internalType": "address",
          "name": "creator",
          "type": "address"
        },
        {
          "indexed": false,
          "internalType": "string",
          "name": "name",
          "type": "string"
        },
        {
          "indexed": false,
          "internalType": "string",
          "name": "symbol",
          "type": "string"
        },
        {
          "indexed": false,
          "internalType": "string",
          "name": "metadataURI",
          "type": "string"
        }
      ],
      "name": "TokenCreated",
      "type": "event"
    },
    {
      "anonymous": false,
      "inputs": [
        {
          "indexed": true,
          "internalType": "address",
          "name": "user",
          "type": "address"
        },
        {
          "indexed": false,
          "internalType": "uint256",
          "name": "nullifierHash",
          "type": "uint256"
        },
        {
          "indexed": false,
          "internalType": "uint256",
          "name": "lastCreationTime",
          "type": "uint256"
        },
        {
          "indexed": false,
          "internalType": "uint256",
          "name": "cooldownEndTime",
          "type": "uint256"
        }
      ],
      "name": "TokenCreationCooldownExceeded",
      "type": "event"
    },
    {
      "anonymous": false,
      "inputs": [
        {
          "indexed": true,
          "internalType": "address",
          "name": "token",
          "type": "address"
        },
        {
          "indexed": true,
          "internalType": "address",
          "name": "buyer",
          "type": "address"
        },
        {
          "indexed": false,
          "internalType": "uint256",
          "name": "ethAmount",
          "type": "uint256"
        },
        {
          "indexed": false,
          "internalType": "uint256",
          "name": "tokenAmount",
          "type": "uint256"
        },
        {
          "indexed": false,
          "internalType": "uint256",
          "name": "newVirtualEthReserves",
          "type": "uint256"
        },
        {
          "indexed": false,
          "internalType": "uint256",
          "name": "newVirtualTokenReserves",
          "type": "uint256"
        }
      ],
      "name": "TokensBought",
      "type": "event"
    },
    {
      "anonymous": false,
      "inputs": [
        {
          "indexed": true,
          "internalType": "address",
          "name": "token",
          "type": "address"
        },
        {
          "indexed": true,
          "internalType": "address",
          "name": "seller",
          "type": "address"
        },
        {
          "indexed": false,
          "internalType": "uint256",
          "name": "tokenAmount",
          "type": "uint256"
        },
        {
          "indexed": false,
          "internalType": "uint256",
          "name": "ethAmount",
          "type": "uint256"
        },
        {
          "indexed": false,
          "internalType": "uint256",
          "name": "newVirtualEthReserves",
          "type": "uint256"
        },
        {
          "indexed": false,
          "internalType": "uint256",
          "name": "newVirtualTokenReserves",
          "type": "uint256"
        }
      ],
      "name": "TokensSold",
      "type": "event"
    },
    {
      "anonymous": false,
      "inputs": [
        {
          "indexed": true,
          "internalType": "address",
          "name": "user",
          "type": "address"
        },
        {
          "indexed": false,
          "internalType": "uint256",
          "name": "nullifierHash",
          "type": "uint256"
        }
      ],
      "name": "WorldIDVerified",
      "type": "event"
    },
    {
      "inputs": [],
      "name": "CREATOR_FEE_RATE",
      "outputs": [
        {
          "internalType": "uint256",
          "name": "",
          "type": "uint256"
        }
      ],
      "stateMutability": "view",
      "type": "function"
    },
    {
      "inputs": [],
      "name": "FEE_RATE",
      "outputs": [
        {
          "internalType": "uint256",
          "name": "",
          "type": "uint256"
        }
      ],
      "stateMutability": "view",
      "type": "function"
    },
    {
      "inputs": [],
      "name": "INITIAL_MINT_LIMIT",
      "outputs": [
        {
          "internalType": "uint256",
          "name": "",
          "type": "uint256"
        }
      ],
      "stateMutability": "view",
      "type": "function"
    },
    {
      "inputs": [],
      "name": "PLATFORM_FEE_RATE",
      "outputs": [
        {
          "internalType": "uint256",
          "name": "",
          "type": "uint256"
        }
      ],
      "stateMutability": "view",
      "type": "function"
    },
    {
      "inputs": [],
      "name": "SECONDS_IN_DAY",
      "outputs": [
        {
          "internalType": "uint256",
          "name": "",
          "type": "uint256"
        }
      ],
      "stateMutability": "view",
      "type": "function"
    },
    {
      "inputs": [],
      "name": "VIRTUAL_ETH_RESERVES",
      "outputs": [
        {
          "internalType": "uint256",
          "name": "",
          "type": "uint256"
        }
      ],
      "stateMutability": "view",
      "type": "function"
    },
    {
      "inputs": [],
      "name": "VIRTUAL_TOKEN_RESERVES",
      "outputs": [
        {
          "internalType": "uint256",
          "name": "",
          "type": "uint256"
        }
      ],
      "stateMutability": "view",
      "type": "function"
    },
    {
      "inputs": [
        {
          "internalType": "uint256",
          "name": "",
          "type": "uint256"
        }
      ],
      "name": "allTokens",
      "outputs": [
        {
          "internalType": "address",
          "name": "",
          "type": "address"
        }
      ],
      "stateMutability": "view",
      "type": "function"
    },
    {
      "inputs": [
        {
          "internalType": "address",
          "name": "tokenAddress",
          "type": "address"
        },
        {
          "internalType": "uint256",
          "name": "root",
          "type": "uint256"
        },
        {
          "internalType": "uint256",
          "name": "nullifierHash",
          "type": "uint256"
        },
        {
          "internalType": "uint256[8]",
          "name": "proof",
          "type": "uint256[8]"
        }
      ],
      "name": "buyTokens",
      "outputs": [],
      "stateMutability": "payable",
      "type": "function"
    },
    {
      "inputs": [
        {
          "internalType": "address",
          "name": "tokenAddress",
          "type": "address"
        },
        {
          "internalType": "uint256",
          "name": "tokenAmount",
          "type": "uint256"
        },
        {
          "internalType": "uint256",
          "name": "root",
          "type": "uint256"
        },
        {
          "internalType": "uint256",
          "name": "nullifierHash",
          "type": "uint256"
        },
        {
          "internalType": "uint256[8]",
          "name": "proof",
          "type": "uint256[8]"
        }
      ],
      "name": "buyTokensExact",
      "outputs": [],
      "stateMutability": "payable",
      "type": "function"
    },
    {
      "inputs": [
        {
          "internalType": "uint256",
          "name": "virtualEthReserves",
          "type": "uint256"
        },
        {
          "internalType": "uint256",
          "name": "virtualTokenReserves",
          "type": "uint256"
        },
        {
          "internalType": "uint256",
          "name": "tokenAmount",
          "type": "uint256"
        }
      ],
      "name": "calculateEthAmount",
      "outputs": [
        {
          "internalType": "uint256",
          "name": "",
          "type": "uint256"
        }
      ],
      "stateMutability": "pure",
      "type": "function"
    },
    {
      "inputs": [
        {
          "internalType": "uint256",
          "name": "virtualEthReserves",
          "type": "uint256"
        },
        {
          "internalType": "uint256",
          "name": "virtualTokenReserves",
          "type": "uint256"
        },
        {
          "internalType": "uint256",
          "name": "ethAmount",
          "type": "uint256"
        }
      ],
      "name": "calculateTokenAmount",
      "outputs": [
        {
          "internalType": "uint256",
          "name": "",
          "type": "uint256"
        }
      ],
      "stateMutability": "pure",
      "type": "function"
    },
    {
      "inputs": [
        {
          "internalType": "string",
          "name": "name",
          "type": "string"
        },
        {
          "internalType": "string",
          "name": "symbol",
          "type": "string"
        },
        {
          "internalType": "string",
          "name": "metadataURI",
          "type": "string"
        },
        {
          "internalType": "uint256",
          "name": "root",
          "type": "uint256"
        },
        {
          "internalType": "uint256",
          "name": "nullifierHash",
          "type": "uint256"
        },
        {
          "internalType": "uint256[8]",
          "name": "proof",
          "type": "uint256[8]"
        }
      ],
      "name": "createToken",
      "outputs": [
        {
          "internalType": "address",
          "name": "",
          "type": "address"
        }
      ],
      "stateMutability": "nonpayable",
      "type": "function"
    },
    {
      "inputs": [],
      "name": "getAllTokens",
      "outputs": [
        {
          "internalType": "address[]",
          "name": "",
          "type": "address[]"
        }
      ],
      "stateMutability": "view",
      "type": "function"
    },
    {
      "inputs": [
        {
          "internalType": "address",
          "name": "tokenAddress",
          "type": "address"
        },
        {
          "internalType": "uint256",
          "name": "tokenAmount",
          "type": "uint256"
        }
      ],
      "name": "getEthRequiredForTokens",
      "outputs": [
        {
          "internalType": "uint256",
          "name": "",
          "type": "uint256"
        }
      ],
      "stateMutability": "view",
      "type": "function"
    },
    {
      "inputs": [
        {
          "internalType": "uint256",
          "name": "nullifierHash",
          "type": "uint256"
        },
        {
          "internalType": "address",
          "name": "tokenAddress",
          "type": "address"
        }
      ],
      "name": "getRemainingLimit",
      "outputs": [
        {
          "internalType": "uint256",
          "name": "",
          "type": "uint256"
        }
      ],
      "stateMutability": "view",
      "type": "function"
    },
    {
      "inputs": [],
      "name": "getTokenCount",
      "outputs": [
        {
          "internalType": "uint256",
          "name": "",
          "type": "uint256"
        }
      ],
      "stateMutability": "view",
      "type": "function"
    },
    {
      "inputs": [
        {
          "internalType": "uint256",
          "name": "nullifierHash",
          "type": "uint256"
        }
      ],
      "name": "getTokenCreationCooldown",
      "outputs": [
        {
          "internalType": "bool",
          "name": "canCreateNow",
          "type": "bool"
        },
        {
          "internalType": "uint256",
          "name": "nextCreationTime",
          "type": "uint256"
        }
      ],
      "stateMutability": "view",
      "type": "function"
    },
    {
      "inputs": [
        {
          "internalType": "address",
          "name": "tokenAddress",
          "type": "address"
        }
      ],
      "name": "getTokenPrice",
      "outputs": [
        {
          "internalType": "uint256",
          "name": "",
          "type": "uint256"
        }
      ],
      "stateMutability": "view",
      "type": "function"
    },
    {
      "inputs": [
        {
          "internalType": "address",
          "name": "",
          "type": "address"
        },
        {
          "internalType": "uint256",
          "name": "",
          "type": "uint256"
        }
      ],
      "name": "initialTokenPurchasesMapping",
      "outputs": [
        {
          "internalType": "uint256",
          "name": "",
          "type": "uint256"
        }
      ],
      "stateMutability": "view",
      "type": "function"
    },
    {
      "inputs": [
        {
          "internalType": "address",
          "name": "",
          "type": "address"
        }
      ],
      "name": "isToken",
      "outputs": [
        {
          "internalType": "bool",
          "name": "",
          "type": "bool"
        }
      ],
      "stateMutability": "view",
      "type": "function"
    },
    {
      "inputs": [
        {
          "internalType": "uint256",
          "name": "",
          "type": "uint256"
        }
      ],
      "name": "lastTokenCreationTime",
      "outputs": [
        {
          "internalType": "uint256",
          "name": "",
          "type": "uint256"
        }
      ],
      "stateMutability": "view",
      "type": "function"
    },
    {
      "inputs": [],
      "name": "owner",
      "outputs": [
        {
          "internalType": "address",
          "name": "",
          "type": "address"
        }
      ],
      "stateMutability": "view",
      "type": "function"
    },
    {
      "inputs": [],
      "name": "platformFees",
      "outputs": [
        {
          "internalType": "uint256",
          "name": "",
          "type": "uint256"
        }
      ],
      "stateMutability": "view",
      "type": "function"
    },
    {
      "inputs": [],
      "name": "renounceOwnership",
      "outputs": [],
      "stateMutability": "nonpayable",
      "type": "function"
    },
    {
      "inputs": [
        {
          "internalType": "address",
          "name": "tokenAddress",
          "type": "address"
        },
        {
          "internalType": "uint256",
          "name": "tokenAmount",
          "type": "uint256"
        }
      ],
      "name": "sellTokens",
      "outputs": [],
      "stateMutability": "nonpayable",
      "type": "function"
    },
    {
      "inputs": [
        {
          "internalType": "address",
          "name": "",
          "type": "address"
        }
      ],
      "name": "tokens",
      "outputs": [
        {
          "internalType": "address",
          "name": "creator",
          "type": "address"
        },
        {
          "internalType": "string",
          "name": "name",
          "type": "string"
        },
        {
          "internalType": "string",
          "name": "symbol",
          "type": "string"
        },
        {
          "internalType": "string",
          "name": "metadataURI",
          "type": "string"
        },
        {
          "internalType": "uint256",
          "name": "virtualEthReserves",
          "type": "uint256"
        },
        {
          "internalType": "uint256",
          "name": "virtualTokenReserves",
          "type": "uint256"
        },
        {
          "internalType": "uint256",
          "name": "totalSupply",
          "type": "uint256"
        },
        {
          "internalType": "uint256",
          "name": "creatorFees",
          "type": "uint256"
        },
        {
          "internalType": "uint256",
          "name": "createdAt",
          "type": "uint256"
        }
      ],
      "stateMutability": "view",
      "type": "function"
    },
    {
      "inputs": [
        {
          "internalType": "address",
          "name": "newOwner",
          "type": "address"
        }
      ],
      "name": "transferOwnership",
      "outputs": [],
      "stateMutability": "nonpayable",
      "type": "function"
    },
    {
      "inputs": [
        {
          "internalType": "address",
          "name": "tokenAddress",
          "type": "address"
        }
      ],
      "name": "withdrawCreatorFees",
      "outputs": [],
      "stateMutability": "nonpayable",
      "type": "function"
    },
    {
      "inputs": [],
      "name": "withdrawPlatformFees",
      "outputs": [],
      "stateMutability": "nonpayable",
      "type": "function"
    },
    {
      "stateMutability": "payable",
      "type": "receive"
    }
  ],
  "transactionHash": "0xac2b9db697a4ddcb4ec4af6bf5e2a920ca3ade4a547444e3398f6e87cc06409f",
  "args": [
    "0x42FF98C4E85212a5D31358ACbFe76a621b50fC02",
    "app_staging_63bdbf24a4508f0f971c7311107ffa1c",
    "buy-token",
    "create-token"
  ],
  "numDeployments": 4,
  "solcInputHash": "9befad09d68497fb9b7bf06519ae50e6",
  "bytecode": "0x610100604052600160e0523480156200001757600080fd5b5060405162004004380380620040048339810160408190526200003a916200023d565b6200004533620000e9565b600180556001600160a01b038416608052604051620000a790620000939062000073908690602001620002ef565b6040516020818303038152906040526200013960201b62001f491760201c565b83604051602001620000739291906200030d565b60a052604051620000db90620000c79062000073908690602001620002ef565b82604051602001620000739291906200030d565b60c052506200033592505050565b600080546001600160a01b038381166001600160a01b0319831681178455604051919092169283917f8be0079c531659141344cd1fd0a4f28419497f9722a3daafe3b4186f6b6457e09190a35050565b6000600882604051602001620001509190620002ef565b60408051601f198184030181529190528051602090910120901c92915050565b634e487b7160e01b600052604160045260246000fd5b60005b83811015620001a357818101518382015260200162000189565b50506000910152565b600082601f830112620001be57600080fd5b81516001600160401b0380821115620001db57620001db62000170565b604051601f8301601f19908116603f0116810190828211818310171562000206576200020662000170565b816040528381528660208588010111156200022057600080fd5b6200023384602083016020890162000186565b9695505050505050565b600080600080608085870312156200025457600080fd5b84516001600160a01b03811681146200026c57600080fd5b60208601519094506001600160401b03808211156200028a57600080fd5b6200029888838901620001ac565b94506040870151915080821115620002af57600080fd5b620002bd88838901620001ac565b93506060870151915080821115620002d457600080fd5b50620002e387828801620001ac565b91505092959194509250565b600082516200030381846020870162000186565b9190910192915050565b828152600082516200032781602085016020870162000186565b919091016020019392505050565b60805160a05160c05160e051613c876200037d600039600081816120af0152612221015260006121140152600061227101526000818161207f01526121f10152613c876000f3fe608060405260043610620001f75760003560e01c806361a52a36116200010b578063bc69120011620000a1578063dabba264116200006c578063dabba2641462000589578063e486033914620005ae578063f2fde38b14620005ea578063f4c5cdca146200060f57600080fd5b8063bc691200146200038c578063c464fe651462000527578063d02641a0146200054c578063d0b7830b146200057157600080fd5b806378a8956711620000e257806378a8956714620004b45780638da5cb5b14620004cb578063a7c4abdb14620004eb578063a9854b01146200051057600080fd5b806361a52a36146200045e578063634282af1462000477578063715018a6146200049c57600080fd5b80632036db93116200018d5780632d11c58a11620001585780632d11c58a146200038c57806337599dcc14620003ef5780635a5423e61462000408578063609d55c1146200043957600080fd5b80632036db9314620003505780632930fa49146200038c5780632a5c792a14620003a35780632bcb160b14620003ca57600080fd5b8063194a4e7e11620001ce578063194a4e7e14620002b257806319f3736114620002ca5780631b1158ab146200030f5780631b93b7d2146200033157600080fd5b806304aaa372146200020457806305157cc914620002375780630d88d1aa146200027557600080fd5b36620001ff57005b600080fd5b3480156200021157600080fd5b5062000224692a5a058fc295ed00000081565b6040519081526020015b60405180910390f35b3480156200024457600080fd5b506200025c62000256366004620024a9565b62000634565b6040516001600160a01b0390911681526020016200022e565b3480156200028257600080fd5b506200029a6200029436600462002562565b62000871565b6040805192151583526020830191909152016200022e565b348015620002bf57600080fd5b506200022460055481565b348015620002d757600080fd5b50620002fe620002e936600462002599565b60036020526000908152604090205460ff1681565b60405190151581526020016200022e565b3480156200031c57600080fd5b50620002246b033b2e3c9fd0803ce800000081565b3480156200033e57600080fd5b506200022468056bc75e2d6310000081565b3480156200035d57600080fd5b50620002246200036f366004620025b7565b600660209081526000928352604080842090915290825290205481565b3480156200039957600080fd5b5062000224606481565b348015620003b057600080fd5b50620003bb620008cc565b6040516200022e9190620025e4565b348015620003d757600080fd5b5062000224620003e9366004620025b7565b62000930565b620004066200040036600462002633565b62000c55565b005b3480156200041557600080fd5b50620002246200042736600462002562565b60096020526000908152604090205481565b3480156200044657600080fd5b50620002246200045836600462002680565b62000f1d565b3480156200046b57600080fd5b50620002246201518081565b3480156200048457600080fd5b506200025c6200049636600462002562565b62000f5d565b348015620004a957600080fd5b506200040662000f88565b348015620004c157600080fd5b5060045462000224565b348015620004d857600080fd5b506000546001600160a01b03166200025c565b348015620004f857600080fd5b50620002246200050a366004620026af565b62000fa0565b6200040662000521366004620026dc565b62000fd2565b3480156200053457600080fd5b506200040662000546366004620025b7565b620013b8565b3480156200055957600080fd5b50620002246200056b36600462002599565b6200172f565b3480156200057e57600080fd5b5062000406620019cb565b3480156200059657600080fd5b5062000224620005a8366004620026af565b62001ad2565b348015620005bb57600080fd5b50620005d3620005cd36600462002599565b62001b04565b6040516200022e9998979695949392919062002787565b348015620005f757600080fd5b50620004066200060936600462002599565b62001d05565b3480156200061c57600080fd5b50620004066200062e36600462002599565b62001d84565b60006200064062001f80565b6200064b8362001fdb565b62000659338585856200207d565b600083815260096020526040808220429055518890889033906200067d90620023dd565b6200068b9392919062002808565b604051809103906000f080158015620006a8573d6000803e3d6000fd5b50604080516101208101825233815260208082018c81528284018c9052606083018b9052692a5a058fc295ed00000060808401526b033b2e3c9fd0803ce800000060a0840152600060c0840181905260e08401819052426101008501526001600160a01b038681168252600290935293909320825181546001600160a01b03191692169190911781559151929350839290919060018201906200074c9082620028d8565b5060408201516002820190620007639082620028d8565b50606082015160038201906200077a9082620028d8565b50608082015160048083019190915560a0830151600583015560c0830151600683015560e08301516007830155610100909201516008909101556001600160a01b038216600081815260036020526040808220805460ff1916600190811790915584549081018555939091527f8a35acfbc15ff81a39ae7d344fd709f28e8600b4aa8c65c6b64bfe7fe36bd19b90920180546001600160a01b0319168217905590513391907ffe210c99153843bc67efa2e9a61ec1d63c505e379b9dcf05a9520e84e36e60639062000852908d908d908d90620029a5565b60405180910390a39150506200086760018055565b9695505050505050565b600081815260096020526040812054819080820362000897575060019360009350915050565b6000620008a86201518083620029fa565b9050804210620008c057506001946000945092505050565b60009590945092505050565b606060048054806020026020016040519081016040528092919081815260200182805480156200092657602002820191906000526020600020905b81546001600160a01b0316815260019091019060200180831162000907575b5050505050905090565b6001600160a01b03821660009081526003602052604081205460ff16620009745760405162461bcd60e51b81526004016200096b9062002a10565b60405180910390fd5b60008211620009d25760405162461bcd60e51b815260206004820152602360248201527f546f6b656e20616d6f756e74206d75737420626520677265617465722074686160448201526206e20360ec1b60648201526084016200096b565b6001600160a01b038084166000908152600260209081526040808320815161012081019092528054909416815260018401805493949193919284019162000a19906200284a565b80601f016020809104026020016040519081016040528092919081815260200182805462000a47906200284a565b801562000a985780601f1062000a6c5761010080835404028352916020019162000a98565b820191906000526020600020905b81548152906001019060200180831162000a7a57829003601f168201915b5050505050815260200160028201805462000ab3906200284a565b80601f016020809104026020016040519081016040528092919081815260200182805462000ae1906200284a565b801562000b325780601f1062000b065761010080835404028352916020019162000b32565b820191906000526020600020905b81548152906001019060200180831162000b1457829003601f168201915b5050505050815260200160038201805462000b4d906200284a565b80601f016020809104026020016040519081016040528092919081815260200182805462000b7b906200284a565b801562000bcc5780601f1062000ba05761010080835404028352916020019162000bcc565b820191906000526020600020905b81548152906001019060200180831162000bae57829003601f168201915b50505050508152602001600482015481526020016005820154815260200160068201548152602001600782015481526020016008820154815250509050600062000c2082608001518360a001518662001ad2565b905062000c4a62000c35606461271062002a3e565b62000c4383612710620021d3565b90620021e1565b925050505b92915050565b62000c5f62001f80565b6001600160a01b03841660009081526003602052604090205460ff1662000c9a5760405162461bcd60e51b81526004016200096b9062002a10565b6000341162000cdc5760405162461bcd60e51b815260206004820152600d60248201526c09aeae6e840e6cadcc8408aa89609b1b60448201526064016200096b565b62000cea33848484620021ef565b6001600160a01b038416600090815260026020526040812090349062000d1961271062000c43846064620021d3565b9050600062000d298383620022b4565b9050600062000d42856004015486600501548462000fa0565b90506201518085600801544262000d5a919062002a3e565b101562000da95762000d6e878a83620022c2565b6001600160a01b03891660009081526006602090815260408083208a84529091528120805483929062000da3908490620029fa565b90915550505b600485015462000dba908362002323565b6004860155600585015462000dd09082620022b4565b6005860155600685015462000de6908262002323565b60068601556040516340c10f1960e01b8152336004820152602481018290526001600160a01b038a16906340c10f1990604401600060405180830381600087803b15801562000e3457600080fd5b505af115801562000e49573d6000803e3d6000fd5b50505050600062000e6c61271062000c43606487620021d390919063ffffffff16565b9050600062000e7c8583620022b4565b600788015490915062000e90908362002323565b600788015560055462000ea4908262002323565b6005908155600488015490880154604080518981526020810187905290810192909252606082015233906001600160a01b038d16907f4c6d269da7a2da288d1319084a8b9a593a676b9b529b0449c2faa9bab82c22719060800160405180910390a35050505050505062000f1760018055565b50505050565b6001600160a01b038116600090815260066020908152604080832085845290915281205462000f569068056bc75e2d6310000062002a3e565b9392505050565b6004818154811062000f6e57600080fd5b6000918252602090912001546001600160a01b0316905081565b62000f9262002331565b62000f9e60006200238d565b565b60008062000faf858462002323565b9050600062000fc48262000c438888620021d3565b9050620008678582620022b4565b62000fdc62001f80565b6001600160a01b03851660009081526003602052604090205460ff16620010175760405162461bcd60e51b81526004016200096b9062002a10565b600084116200105b5760405162461bcd60e51b815260206004820152600f60248201526e4d7573742062757920746f6b656e7360881b60448201526064016200096b565b6200106933848484620021ef565b6001600160a01b03851660009081526002602052604090206008810154620151809062001097904262002a3e565b1015620010e657620010ab838787620022c2565b6001600160a01b038616600090815260066020908152604080832086845290915281208054879290620010e0908490620029fa565b90915550505b6000620010fd826004015483600501548862001ad2565b905060006200112262001114606461271062002a3e565b62000c4384612710620021d3565b9050803410156200116e5760405162461bcd60e51b8152602060048201526015602482015274125b9cdd59999a58da595b9d08115512081cd95b9d605a1b60448201526064016200096b565b60006200118461271062000c43846064620021d3565b90506000620011948383620022b4565b6004860154909150620011a8908262002323565b60048601556005850154620011be908a620022b4565b60058601556006850154620011d4908a62002323565b60068601556040516340c10f1960e01b8152336004820152602481018a90526001600160a01b038b16906340c10f1990604401600060405180830381600087803b1580156200122257600080fd5b505af115801562001237573d6000803e3d6000fd5b5050505060006200125a61271062000c43606486620021d390919063ffffffff16565b905060006200126a8483620022b4565b60078801549091506200127e908362002323565b600788015560055462001292908262002323565b6005553485101562001342576000620012ac3487620022b4565b604051909150600090339083908381818185875af1925050503d8060008114620012f3576040519150601f19603f3d011682016040523d82523d6000602084013e620012f8565b606091505b50509050806200133f5760405162461bcd60e51b8152602060048201526011602482015270115512081c99599d5b990819985a5b1959607a1b60448201526064016200096b565b50505b6004870154600588015460408051888152602081018f905290810192909252606082015233906001600160a01b038e16907f4c6d269da7a2da288d1319084a8b9a593a676b9b529b0449c2faa9bab82c22719060800160405180910390a350505050505050620013b160018055565b5050505050565b620013c262001f80565b6001600160a01b03821660009081526003602052604090205460ff16620013fd5760405162461bcd60e51b81526004016200096b9062002a10565b60008111620014425760405162461bcd60e51b815260206004820152601060248201526f4d7573742073656c6c20746f6b656e7360801b60448201526064016200096b565b6001600160a01b0382166000818152600260205260409081902090516370a0823160e01b8152336004820152909183916370a0823190602401602060405180830381865afa15801562001499573d6000803e3d6000fd5b505050506040513d601f19601f82011682018060405250810190620014bf919062002a54565b10156200150f5760405162461bcd60e51b815260206004820152601a60248201527f496e73756666696369656e7420746f6b656e2062616c616e636500000000000060448201526064016200096b565b600062001526826004015483600501548562001ad2565b905060006200153e61271062000c43846064620021d3565b905060006200154e8383620022b4565b6004850154909150620015629084620022b4565b6004850155600584015462001578908662002323565b600585015560068401546200158e9086620022b4565b6006850155604051632770a7eb60e21b8152336004820152602481018690526001600160a01b03871690639dc29fac90604401600060405180830381600087803b158015620015dc57600080fd5b505af1158015620015f1573d6000803e3d6000fd5b5050505060006200161461271062000c43606486620021d390919063ffffffff16565b90506000620016248483620022b4565b600787015490915062001638908362002323565b60078701556005546200164c908262002323565b600555604051600090339085908381818185875af1925050503d806000811462001693576040519150601f19603f3d011682016040523d82523d6000602084013e62001698565b606091505b5050905080620016bc5760405162461bcd60e51b81526004016200096b9062002a6e565b60048701546005880154604080518b8152602081018a905290810192909252606082015233906001600160a01b038b16907f34f38731fae2221a0127cde5769237f08a73e828efb7c9a19e4c6fa171ff763d9060800160405180910390a3505050505050506200172b60018055565b5050565b6001600160a01b03811660009081526003602052604081205460ff166200176a5760405162461bcd60e51b81526004016200096b9062002a10565b6001600160a01b0380831660009081526002602090815260408083208151610120810190925280549094168152600184018054939491939192840191620017b1906200284a565b80601f0160208091040260200160405190810160405280929190818152602001828054620017df906200284a565b8015620018305780601f10620018045761010080835404028352916020019162001830565b820191906000526020600020905b8154815290600101906020018083116200181257829003601f168201915b505050505081526020016002820180546200184b906200284a565b80601f016020809104026020016040519081016040528092919081815260200182805462001879906200284a565b8015620018ca5780601f106200189e57610100808354040283529160200191620018ca565b820191906000526020600020905b815481529060010190602001808311620018ac57829003601f168201915b50505050508152602001600382018054620018e5906200284a565b80601f016020809104026020016040519081016040528092919081815260200182805462001913906200284a565b8015620019645780601f10620019385761010080835404028352916020019162001964565b820191906000526020600020905b8154815290600101906020018083116200194657829003601f168201915b5050505050815260200160048201548152602001600582015481526020016006820154815260200160078201548152602001600882015481525050905062000f568160a0015162000c43670de0b6b3a76400008460800151620021d390919063ffffffff16565b620019d562002331565b620019df62001f80565b60006005541162001a335760405162461bcd60e51b815260206004820152601c60248201527f4e6f20706c6174666f726d206665657320746f2077697468647261770000000060448201526064016200096b565b600580546000918290559062001a516000546001600160a01b031690565b6001600160a01b03168260405160006040518083038185875af1925050503d806000811462001a9d576040519150601f19603f3d011682016040523d82523d6000602084013e62001aa2565b606091505b505090508062001ac65760405162461bcd60e51b81526004016200096b9062002a6e565b505062000f9e60018055565b60008062001ae1848462002323565b9050600062001af68262000c438888620021d3565b9050620008678682620022b4565b600260205260009081526040902080546001820180546001600160a01b03909216929162001b32906200284a565b80601f016020809104026020016040519081016040528092919081815260200182805462001b60906200284a565b801562001bb15780601f1062001b855761010080835404028352916020019162001bb1565b820191906000526020600020905b81548152906001019060200180831162001b9357829003601f168201915b50505050509080600201805462001bc8906200284a565b80601f016020809104026020016040519081016040528092919081815260200182805462001bf6906200284a565b801562001c475780601f1062001c1b5761010080835404028352916020019162001c47565b820191906000526020600020905b81548152906001019060200180831162001c2957829003601f168201915b50505050509080600301805462001c5e906200284a565b80601f016020809104026020016040519081016040528092919081815260200182805462001c8c906200284a565b801562001cdd5780601f1062001cb15761010080835404028352916020019162001cdd565b820191906000526020600020905b81548152906001019060200180831162001cbf57829003601f168201915b5050505050908060040154908060050154908060060154908060070154908060080154905089565b62001d0f62002331565b6001600160a01b03811662001d765760405162461bcd60e51b815260206004820152602660248201527f4f776e61626c653a206e6577206f776e657220697320746865207a65726f206160448201526564647265737360d01b60648201526084016200096b565b62001d81816200238d565b50565b62001d8e62001f80565b6001600160a01b03811660009081526003602052604090205460ff1662001dc95760405162461bcd60e51b81526004016200096b9062002a10565b6001600160a01b0381811660009081526002602052604090208054909116331462001e375760405162461bcd60e51b815260206004820152601960248201527f4f6e6c792063726561746f722063616e2077697468647261770000000000000060448201526064016200096b565b600081600701541162001e835760405162461bcd60e51b81526020600482015260136024820152724e6f206665657320746f20776974686472617760681b60448201526064016200096b565b600781018054600091829055604051909190339083908381818185875af1925050503d806000811462001ed3576040519150601f19603f3d011682016040523d82523d6000602084013e62001ed8565b606091505b505090508062001efc5760405162461bcd60e51b81526004016200096b9062002a6e565b60405182815233906001600160a01b038616907f1d9bd648787e565657449bd337e6ebf44646582a0a8eac81d051b198bf2ff49f9060200160405180910390a350505062001d8160018055565b600060088260405160200162001f60919062002a9b565b60408051601f198184030181529190528051602090910120901c92915050565b60026001540362001fd45760405162461bcd60e51b815260206004820152601f60248201527f5265656e7472616e637947756172643a207265656e7472616e742063616c6c0060448201526064016200096b565b6002600155565b60008181526009602052604090205480158015906200200757506201518062002005824262002a3e565b105b156200172b5760006200201e6201518083620029fa565b604080518581526020810185905290810182905290915033907fa2e35bfb272a0dacf62b8bdba3ee48dd71e40bd03f4f816bb8a53b6a4caab4779060600160405180910390a26040516389a0a01360e01b815260040160405180910390fd5b7f00000000000000000000000000000000000000000000000000000000000000006001600160a01b0316633bc778e3847f00000000000000000000000000000000000000000000000000000000000000006200211188604051602001620020fc919060609190911b6bffffffffffffffffffffffff1916815260140190565b60405160208183030381529060405262001f49565b867f0000000000000000000000000000000000000000000000000000000000000000876040518763ffffffff1660e01b8152600401620021579695949392919062002ab9565b60006040518083038186803b1580156200217057600080fd5b505afa15801562002185573d6000803e3d6000fd5b50505050836001600160a01b03167f3ce3861f233f7cc26caa8426b30e97a5b7afabb23448fb55227ab3186106fa0783604051620021c591815260200190565b60405180910390a250505050565b600062000f56828462002af1565b600062000f56828462002b0b565b7f00000000000000000000000000000000000000000000000000000000000000006001600160a01b0316633bc778e3847f00000000000000000000000000000000000000000000000000000000000000006200226e88604051602001620020fc919060609190911b6bffffffffffffffffffffffff1916815260140190565b867f0000000000000000000000000000000000000000000000000000000000000000876040518763ffffffff1660e01b8152600401620021579695949392919062002ab9565b600062000f56828462002a3e565b6001600160a01b038216600090815260066020908152604080832086845290915290205468056bc75e2d6310000090620022fe908390620029fa565b11156200231e5760405163199f5a0360e31b815260040160405180910390fd5b505050565b600062000f568284620029fa565b6000546001600160a01b0316331462000f9e5760405162461bcd60e51b815260206004820181905260248201527f4f776e61626c653a2063616c6c6572206973206e6f7420746865206f776e657260448201526064016200096b565b600080546001600160a01b038381166001600160a01b0319831681178455604051919092169283917f8be0079c531659141344cd1fd0a4f28419497f9722a3daafe3b4186f6b6457e09190a35050565b6111238062002b2f83390190565b634e487b7160e01b600052604160045260246000fd5b600082601f8301126200241357600080fd5b813567ffffffffffffffff80821115620024315762002431620023eb565b604051601f8301601f19908116603f011681019082821181831017156200245c576200245c620023eb565b816040528381528660208588010111156200247657600080fd5b836020870160208301376000602085830101528094505050505092915050565b80610100810183101562000c4f57600080fd5b6000806000806000806101a08789031215620024c457600080fd5b863567ffffffffffffffff80821115620024dd57600080fd5b620024eb8a838b0162002401565b975060208901359150808211156200250257600080fd5b620025108a838b0162002401565b965060408901359150808211156200252757600080fd5b506200253689828a0162002401565b9450506060870135925060808701359150620025568860a0890162002496565b90509295509295509295565b6000602082840312156200257557600080fd5b5035919050565b80356001600160a01b03811681146200259457600080fd5b919050565b600060208284031215620025ac57600080fd5b62000f56826200257c565b60008060408385031215620025cb57600080fd5b620025d6836200257c565b946020939093013593505050565b6020808252825182820181905260009190848201906040850190845b81811015620026275783516001600160a01b03168352928401929184019160010162002600565b50909695505050505050565b60008060008061016085870312156200264b57600080fd5b62002656856200257c565b9350602085013592506040850135915062002675866060870162002496565b905092959194509250565b600080604083850312156200269457600080fd5b82359150620026a6602084016200257c565b90509250929050565b600080600060608486031215620026c557600080fd5b505081359360208301359350604090920135919050565b60008060008060006101808688031215620026f657600080fd5b62002701866200257c565b945060208601359350604086013592506060860135915062002727876080880162002496565b90509295509295909350565b60005b838110156200275057818101518382015260200162002736565b50506000910152565b600081518084526200277381602086016020860162002733565b601f01601f19169290920160200192915050565b6001600160a01b038a16815261012060208201819052600090620027ae8382018c62002759565b90508281036040840152620027c4818b62002759565b90508281036060840152620027da818a62002759565b6080840198909852505060a081019490945260c084019290925260e083015261010090910152949350505050565b6060815260006200281d606083018662002759565b828103602084015262002831818662002759565b91505060018060a01b0383166040830152949350505050565b600181811c908216806200285f57607f821691505b6020821081036200288057634e487b7160e01b600052602260045260246000fd5b50919050565b601f8211156200231e57600081815260208120601f850160051c81016020861015620028af5750805b601f850160051c820191505b81811015620028d057828155600101620028bb565b505050505050565b815167ffffffffffffffff811115620028f557620028f5620023eb565b6200290d816200290684546200284a565b8462002886565b602080601f8311600181146200294557600084156200292c5750858301515b600019600386901b1c1916600185901b178555620028d0565b600085815260208120601f198616915b82811015620029765788860151825594840194600190910190840162002955565b5085821015620029955787850151600019600388901b60f8161c191681555b5050505050600190811b01905550565b606081526000620029ba606083018662002759565b8281036020840152620029ce818662002759565b9050828103604084015262000867818562002759565b634e487b7160e01b600052601160045260246000fd5b8082018082111562000c4f5762000c4f620029e4565b602080825260149082015273151bdad95b88191bd95cc81b9bdd08195e1a5cdd60621b604082015260600190565b8181038181111562000c4f5762000c4f620029e4565b60006020828403121562002a6757600080fd5b5051919050565b602080825260139082015272115512081d1c985b9cd9995c8819985a5b1959606a1b604082015260600190565b6000825162002aaf81846020870162002733565b9190910192915050565b60006101a0820190508782528660208301528560408301528460608301528360808301526101008360a0840137979650505050505050565b808202811582820484141762000c4f5762000c4f620029e4565b60008262002b2957634e487b7160e01b600052601260045260246000fd5b50049056fe60a06040523480156200001157600080fd5b5060405162001123380380620011238339810160408190526200003491620001a3565b82826003620000448382620002bf565b506004620000538282620002bf565b505050620000706200006a6200008860201b60201c565b6200008c565b336080526200007f816200008c565b5050506200038b565b3390565b600580546001600160a01b038381166001600160a01b0319831681179093556040519116919082907f8be0079c531659141344cd1fd0a4f28419497f9722a3daafe3b4186f6b6457e090600090a35050565b634e487b7160e01b600052604160045260246000fd5b600082601f8301126200010657600080fd5b81516001600160401b0380821115620001235762000123620000de565b604051601f8301601f19908116603f011681019082821181831017156200014e576200014e620000de565b816040528381526020925086838588010111156200016b57600080fd5b600091505b838210156200018f578582018301518183018401529082019062000170565b600093810190920192909252949350505050565b600080600060608486031215620001b957600080fd5b83516001600160401b0380821115620001d157600080fd5b620001df87838801620000f4565b94506020860151915080821115620001f657600080fd5b506200020586828701620000f4565b604086015190935090506001600160a01b03811681146200022557600080fd5b809150509250925092565b600181811c908216806200024557607f821691505b6020821081036200026657634e487b7160e01b600052602260045260246000fd5b50919050565b601f821115620002ba57600081815260208120601f850160051c81016020861015620002955750805b601f850160051c820191505b81811015620002b657828155600101620002a1565b5050505b505050565b81516001600160401b03811115620002db57620002db620000de565b620002f381620002ec845462000230565b846200026c565b602080601f8311600181146200032b5760008415620003125750858301515b600019600386901b1c1916600185901b178555620002b6565b600085815260208120601f198616915b828110156200035c578886015182559484019460019091019084016200033b565b50858210156200037b5787850151600019600388901b60f8161c191681555b5050505050600190811b01905550565b608051610d6e620003b5600039600081816101150152818161038e015261043c0152610d6e6000f3fe608060405234801561001057600080fd5b506004361061010b5760003560e01c806370a08231116100a25780639dc29fac116100715780639dc29fac14610232578063a457c2d714610245578063a9059cbb14610258578063dd62ed3e1461026b578063f2fde38b1461027e57600080fd5b806370a08231146101e8578063715018a6146102115780638da5cb5b1461021957806395d89b411461022a57600080fd5b806323b872dd116100de57806323b872dd1461019e578063313ce567146101b157806339509351146101c057806340c10f19146101d357600080fd5b806302669b521461011057806306fdde0314610154578063095ea7b31461016957806318160ddd1461018c575b600080fd5b6101377f000000000000000000000000000000000000000000000000000000000000000081565b6040516001600160a01b0390911681526020015b60405180910390f35b61015c610291565b60405161014b9190610bb8565b61017c610177366004610c22565b610323565b604051901515815260200161014b565b6002545b60405190815260200161014b565b61017c6101ac366004610c4c565b61033d565b6040516012815260200161014b565b61017c6101ce366004610c22565b610361565b6101e66101e1366004610c22565b610383565b005b6101906101f6366004610c88565b6001600160a01b031660009081526020819052604090205490565b6101e661040e565b6005546001600160a01b0316610137565b61015c610422565b6101e6610240366004610c22565b610431565b61017c610253366004610c22565b6104b3565b61017c610266366004610c22565b61052e565b610190610279366004610caa565b61053c565b6101e661028c366004610c88565b610567565b6060600380546102a090610cdd565b80601f01602080910402602001604051908101604052809291908181526020018280546102cc90610cdd565b80156103195780601f106102ee57610100808354040283529160200191610319565b820191906000526020600020905b8154815290600101906020018083116102fc57829003601f168201915b5050505050905090565b6000336103318185856105e0565b60019150505b92915050565b60003361034b858285610705565b61035685858561077f565b506001949350505050565b600033610331818585610374838361053c565b61037e9190610d17565b6105e0565b336001600160a01b037f000000000000000000000000000000000000000000000000000000000000000016146104005760405162461bcd60e51b815260206004820152601760248201527f4f6e6c79206c61756e63687061642063616e206d696e7400000000000000000060448201526064015b60405180910390fd5b61040a8282610923565b5050565b6104166109e2565b6104206000610a3c565b565b6060600480546102a090610cdd565b336001600160a01b037f000000000000000000000000000000000000000000000000000000000000000016146104a95760405162461bcd60e51b815260206004820152601760248201527f4f6e6c79206c61756e63687061642063616e206275726e00000000000000000060448201526064016103f7565b61040a8282610a8e565b600033816104c1828661053c565b9050838110156105215760405162461bcd60e51b815260206004820152602560248201527f45524332303a2064656372656173656420616c6c6f77616e63652062656c6f77604482015264207a65726f60d81b60648201526084016103f7565b61035682868684036105e0565b60003361033181858561077f565b6001600160a01b03918216600090815260016020908152604080832093909416825291909152205490565b61056f6109e2565b6001600160a01b0381166105d45760405162461bcd60e51b815260206004820152602660248201527f4f776e61626c653a206e6577206f776e657220697320746865207a65726f206160448201526564647265737360d01b60648201526084016103f7565b6105dd81610a3c565b50565b6001600160a01b0383166106425760405162461bcd60e51b8152602060048201526024808201527f45524332303a20617070726f76652066726f6d20746865207a65726f206164646044820152637265737360e01b60648201526084016103f7565b6001600160a01b0382166106a35760405162461bcd60e51b815260206004820152602260248201527f45524332303a20617070726f766520746f20746865207a65726f206164647265604482015261737360f01b60648201526084016103f7565b6001600160a01b0383811660008181526001602090815260408083209487168084529482529182902085905590518481527f8c5be1e5ebec7d5bd14f71427d1e84f3dd0314c0f7b2291e5b200ac8c7c3b92591015b60405180910390a3505050565b6000610711848461053c565b90506000198114610779578181101561076c5760405162461bcd60e51b815260206004820152601d60248201527f45524332303a20696e73756666696369656e7420616c6c6f77616e636500000060448201526064016103f7565b61077984848484036105e0565b50505050565b6001600160a01b0383166107e35760405162461bcd60e51b815260206004820152602560248201527f45524332303a207472616e736665722066726f6d20746865207a65726f206164604482015264647265737360d81b60648201526084016103f7565b6001600160a01b0382166108455760405162461bcd60e51b815260206004820152602360248201527f45524332303a207472616e7366657220746f20746865207a65726f206164647260448201526265737360e81b60648201526084016103f7565b6001600160a01b038316600090815260208190526040902054818110156108bd5760405162461bcd60e51b815260206004820152602660248201527f45524332303a207472616e7366657220616d6f756e7420657863656564732062604482015265616c616e636560d01b60648201526084016103f7565b6001600160a01b03848116600081815260208181526040808320878703905593871680835291849020805487019055925185815290927fddf252ad1be2c89b69c2b068fc378daa952ba7f163c4a11628f55a4df523b3ef910160405180910390a3610779565b6001600160a01b0382166109795760405162461bcd60e51b815260206004820152601f60248201527f45524332303a206d696e7420746f20746865207a65726f20616464726573730060448201526064016103f7565b806002600082825461098b9190610d17565b90915550506001600160a01b038216600081815260208181526040808320805486019055518481527fddf252ad1be2c89b69c2b068fc378daa952ba7f163c4a11628f55a4df523b3ef910160405180910390a35050565b6005546001600160a01b031633146104205760405162461bcd60e51b815260206004820181905260248201527f4f776e61626c653a2063616c6c6572206973206e6f7420746865206f776e657260448201526064016103f7565b600580546001600160a01b038381166001600160a01b0319831681179093556040519116919082907f8be0079c531659141344cd1fd0a4f28419497f9722a3daafe3b4186f6b6457e090600090a35050565b6001600160a01b038216610aee5760405162461bcd60e51b815260206004820152602160248201527f45524332303a206275726e2066726f6d20746865207a65726f206164647265736044820152607360f81b60648201526084016103f7565b6001600160a01b03821660009081526020819052604090205481811015610b625760405162461bcd60e51b815260206004820152602260248201527f45524332303a206275726e20616d6f756e7420657863656564732062616c616e604482015261636560f01b60648201526084016103f7565b6001600160a01b0383166000818152602081815260408083208686039055600280548790039055518581529192917fddf252ad1be2c89b69c2b068fc378daa952ba7f163c4a11628f55a4df523b3ef91016106f8565b600060208083528351808285015260005b81811015610be557858101830151858201604001528201610bc9565b506000604082860101526040601f19601f8301168501019250505092915050565b80356001600160a01b0381168114610c1d57600080fd5b919050565b60008060408385031215610c3557600080fd5b610c3e83610c06565b946020939093013593505050565b600080600060608486031215610c6157600080fd5b610c6a84610c06565b9250610c7860208501610c06565b9150604084013590509250925092565b600060208284031215610c9a57600080fd5b610ca382610c06565b9392505050565b60008060408385031215610cbd57600080fd5b610cc683610c06565b9150610cd460208401610c06565b90509250929050565b600181811c90821680610cf157607f821691505b602082108103610d1157634e487b7160e01b600052602260045260246000fd5b50919050565b8082018082111561033757634e487b7160e01b600052601160045260246000fdfea2646970667358221220bab070658e514f72718d5880593c085ac6a3d3f60ecf4743d1f2a69dd256619f64736f6c63430008110033a2646970667358221220256a10fc2611230e34ae91323820f6132186fedcdfad2aef31386e19b04f68c664736f6c63430008110033",
  "devdoc": {
    "kind": "dev",
    "methods": {
      "buyTokens(address,uint256,uint256,uint256[8])": {
        "details": "Buy tokens using ETH with World ID verification",
        "params": {
          "nullifierHash": "The nullifier hash for this proof",
          "proof": "The zero-knowledge proof",
          "root": "The World ID root to verify against",
          "tokenAddress": "Address of the token to buy"
        }
      },
      "buyTokensExact(address,uint256,uint256,uint256,uint256[8])": {
        "details": "Buy specific amount of tokens with World ID verification",
        "params": {
          "nullifierHash": "The nullifier hash for this proof",
          "proof": "The zero-knowledge proof",
          "root": "The World ID root to verify against",
          "tokenAddress": "Address of the token to buy",
          "tokenAmount": "Amount of tokens to buy"
        }
      },
      "calculateEthAmount(uint256,uint256,uint256)": {
        "details": "Calculate ETH amount for given tokens using bonding curve"
      },
      "calculateTokenAmount(uint256,uint256,uint256)": {
        "details": "Calculate token amount for given ETH using bonding curve"
      },
      "constructor": {
        "params": {
          "_action": "The World ID Action (from Developer Portal)",
          "_appId": "The World ID App ID (from Developer Portal)",
          "_tokenCreationAction": "The World ID Action for token creation (from Developer Portal)",
          "_worldId": "The address of the WorldIDRouter that will verify the proofs"
        }
      },
      "createToken(string,string,string,uint256,uint256,uint256[8])": {
        "details": "Create a new token with bonding curve",
        "params": {
          "metadataURI": "Token metadata URI",
          "name": "Token name",
          "nullifierHash": "The nullifier hash for this proof",
          "proof": "The zero-knowledge proof",
          "root": "The World ID root to verify against",
          "symbol": "Token symbol"
        }
      },
      "getAllTokens()": {
        "details": "Get all tokens"
      },
      "getEthRequiredForTokens(address,uint256)": {
        "details": "Get ETH amount required to buy specific number of tokens (including fees)",
        "params": {
          "tokenAddress": "Address of the token",
          "tokenAmount": "Amount of tokens to buy"
        },
        "returns": {
          "_0": "ethAmount ETH amount required (including fees)"
        }
      },
      "getRemainingLimit(uint256,address)": {
        "details": "Get user's remaining mint limit"
      },
      "getTokenCount()": {
        "details": "Get token count"
      },
      "getTokenCreationCooldown(uint256)": {
        "details": "Get when a user can create their next token",
        "params": {
          "nullifierHash": "The nullifier hash to check"
        },
        "returns": {
          "canCreateNow": "True if user can create a token now",
          "nextCreationTime": "Timestamp when user can create next token (0 if can create now)"
        }
      },
      "getTokenPrice(address)": {
        "details": "Get token price in ETH"
      },
      "owner()": {
        "details": "Returns the address of the current owner."
      },
      "renounceOwnership()": {
        "details": "Leaves the contract without owner. It will not be possible to call `onlyOwner` functions. Can only be called by the current owner. NOTE: Renouncing ownership will leave the contract without an owner, thereby disabling any functionality that is only available to the owner."
      },
      "sellTokens(address,uint256)": {
        "details": "Sell tokens for ETH",
        "params": {
          "tokenAddress": "Address of the token to sell",
          "tokenAmount": "Amount of tokens to sell"
        }
      },
      "transferOwnership(address)": {
        "details": "Transfers ownership of the contract to a new account (`newOwner`). Can only be called by the current owner."
      },
      "withdrawCreatorFees(address)": {
        "details": "Withdraw creator fees",
        "params": {
          "tokenAddress": "Address of the token"
        }
      },
      "withdrawPlatformFees()": {
        "details": "Withdraw platform fees (owner only)"
      }
    },
    "version": 1
  },
  "userdoc": {
    "errors": {
      "DailyLimitExceededError()": [
        {
          "notice": "Thrown when daily mint limit is exceeded"
        }
      ],
      "InvalidMintAmount()": [
        {
          "notice": "Thrown when attempting to reuse a nullifier"
        }
      ],
      "TokenCreationCooldownNotMet()": [
        {
          "notice": "Thrown when token creation cooldown is not met"
        }
      ]
    },
    "kind": "user",
    "methods": {},
    "version": 1
  },
  "storageLayout": {
    "storage": [
      {
        "astId": 7,
        "contract": "contracts/TokenLaunchpad.sol:TokenLaunchpad",
        "label": "_owner",
        "offset": 0,
        "slot": "0",
        "type": "t_address"
      },
      {
        "astId": 123,
        "contract": "contracts/TokenLaunchpad.sol:TokenLaunchpad",
        "label": "_status",
        "offset": 0,
        "slot": "1",
        "type": "t_uint256"
      },
      {
        "astId": 2112,
        "contract": "contracts/TokenLaunchpad.sol:TokenLaunchpad",
        "label": "tokens",
        "offset": 0,
        "slot": "2",
        "type": "t_mapping(t_address,t_struct(TokenInfo)2240_storage)"
      },
      {
        "astId": 2116,
        "contract": "contracts/TokenLaunchpad.sol:TokenLaunchpad",
        "label": "isToken",
        "offset": 0,
        "slot": "3",
        "type": "t_mapping(t_address,t_bool)"
      },
      {
        "astId": 2119,
        "contract": "contracts/TokenLaunchpad.sol:TokenLaunchpad",
        "label": "allTokens",
        "offset": 0,
        "slot": "4",
        "type": "t_array(t_address)dyn_storage"
      },
      {
        "astId": 2121,
        "contract": "contracts/TokenLaunchpad.sol:TokenLaunchpad",
        "label": "platformFees",
        "offset": 0,
        "slot": "5",
        "type": "t_uint256"
      },
      {
        "astId": 2137,
        "contract": "contracts/TokenLaunchpad.sol:TokenLaunchpad",
        "label": "initialTokenPurchasesMapping",
        "offset": 0,
        "slot": "6",
        "type": "t_mapping(t_address,t_mapping(t_uint256,t_uint256))"
      },
      {
        "astId": 2141,
        "contract": "contracts/TokenLaunchpad.sol:TokenLaunchpad",
        "label": "dailyMintedAmount",
        "offset": 0,
        "slot": "7",
        "type": "t_mapping(t_address,t_uint256)"
      },
      {
        "astId": 2145,
        "contract": "contracts/TokenLaunchpad.sol:TokenLaunchpad",
        "label": "lastMintDay",
        "offset": 0,
        "slot": "8",
        "type": "t_mapping(t_address,t_uint256)"
      },
      {
        "astId": 2149,
        "contract": "contracts/TokenLaunchpad.sol:TokenLaunchpad",
        "label": "lastTokenCreationTime",
        "offset": 0,
        "slot": "9",
        "type": "t_mapping(t_uint256,t_uint256)"
      }
    ],
    "types": {
      "t_address": {
        "encoding": "inplace",
        "label": "address",
        "numberOfBytes": "20"
      },
      "t_array(t_address)dyn_storage": {
        "base": "t_address",
        "encoding": "dynamic_array",
        "label": "address[]",
        "numberOfBytes": "32"
      },
      "t_bool": {
        "encoding": "inplace",
        "label": "bool",
        "numberOfBytes": "1"
      },
      "t_mapping(t_address,t_bool)": {
        "encoding": "mapping",
        "key": "t_address",
        "label": "mapping(address => bool)",
        "numberOfBytes": "32",
        "value": "t_bool"
      },
      "t_mapping(t_address,t_mapping(t_uint256,t_uint256))": {
        "encoding": "mapping",
        "key": "t_address",
        "label": "mapping(address => mapping(uint256 => uint256))",
        "numberOfBytes": "32",
        "value": "t_mapping(t_uint256,t_uint256)"
      },
      "t_mapping(t_address,t_struct(TokenInfo)2240_storage)": {
        "encoding": "mapping",
        "key": "t_address",
        "label": "mapping(address => struct TokenLaunchpad.TokenInfo)",
        "numberOfBytes": "32",
        "value": "t_struct(TokenInfo)2240_storage"
      },
      "t_mapping(t_address,t_uint256)": {
        "encoding": "mapping",
        "key": "t_address",
        "label": "mapping(address => uint256)",
        "numberOfBytes": "32",
        "value": "t_uint256"
      },
      "t_mapping(t_uint256,t_uint256)": {
        "encoding": "mapping",
        "key": "t_uint256",
        "label": "mapping(uint256 => uint256)",
        "numberOfBytes": "32",
        "value": "t_uint256"
      },
      "t_string_storage": {
        "encoding": "bytes",
        "label": "string",
        "numberOfBytes": "32"
      },
      "t_struct(TokenInfo)2240_storage": {
        "encoding": "inplace",
        "label": "struct TokenLaunchpad.TokenInfo",
        "members": [
          {
            "astId": 2223,
            "contract": "contracts/TokenLaunchpad.sol:TokenLaunchpad",
            "label": "creator",
            "offset": 0,
            "slot": "0",
            "type": "t_address"
          },
          {
            "astId": 2225,
            "contract": "contracts/TokenLaunchpad.sol:TokenLaunchpad",
            "label": "name",
            "offset": 0,
            "slot": "1",
            "type": "t_string_storage"
          },
          {
            "astId": 2227,
            "contract": "contracts/TokenLaunchpad.sol:TokenLaunchpad",
            "label": "symbol",
            "offset": 0,
            "slot": "2",
            "type": "t_string_storage"
          },
          {
            "astId": 2229,
            "contract": "contracts/TokenLaunchpad.sol:TokenLaunchpad",
            "label": "metadataURI",
            "offset": 0,
            "slot": "3",
            "type": "t_string_storage"
          },
          {
            "astId": 2231,
            "contract": "contracts/TokenLaunchpad.sol:TokenLaunchpad",
            "label": "virtualEthReserves",
            "offset": 0,
            "slot": "4",
            "type": "t_uint256"
          },
          {
            "astId": 2233,
            "contract": "contracts/TokenLaunchpad.sol:TokenLaunchpad",
            "label": "virtualTokenReserves",
            "offset": 0,
            "slot": "5",
            "type": "t_uint256"
          },
          {
            "astId": 2235,
            "contract": "contracts/TokenLaunchpad.sol:TokenLaunchpad",
            "label": "totalSupply",
            "offset": 0,
            "slot": "6",
            "type": "t_uint256"
          },
          {
            "astId": 2237,
            "contract": "contracts/TokenLaunchpad.sol:TokenLaunchpad",
            "label": "creatorFees",
            "offset": 0,
            "slot": "7",
            "type": "t_uint256"
          },
          {
            "astId": 2239,
            "contract": "contracts/TokenLaunchpad.sol:TokenLaunchpad",
            "label": "createdAt",
            "offset": 0,
            "slot": "8",
            "type": "t_uint256"
          }
        ],
        "numberOfBytes": "288"
      },
      "t_uint256": {
        "encoding": "inplace",
        "label": "uint256",
        "numberOfBytes": "32"
      }
    }
  }
}